:020000040800F2
:100000006008002089010008691D0008B31A000873
:10001000251D0008CF060008813A000800000000F6
:100020000000000000000000000000006533000830
:10003000D10600080000000015310008A9330008AF
:10004000A3010008A3010008A3010008A301000800
:10005000A3010008A3010008A3010008A3010008F0
:10006000A3010008A3010008A3010008A3010008E0
:10007000A3010008A3010008A3010008A3010008D0
:10008000A3010008A3010008A3010008A3010008C0
:10009000A3010008A3010008A3010008A3010008B0
:1000A000A3010008A3010008A3010008A3010008A0
:1000B000A3010008A3010008A3010008A301000890
:1000C000A3010008A3010008A3010008A301000880
:1000D000A3010008693A0008753A0008A301000866
:1000E000A3010008A3010008A301000800F002F822
:1000F00000F03AF80AA090E8000C82448344AAF188
:100100000107DA4501D100F02FF8AFF2090EBAE885
:100110000F0013F0010F18BFFB1A43F0010318473B
:100120002443000044430000103A24BF78C878C13B
:10013000FAD8520724BF30C830C144BF04680C60ED
:10014000704700000023002400250026103A28BF35
:1001500078C1FBD8520728BF30C148BF0B60704739
:100160001FB51FBD10B510BD00F058F81146FFF7C0
:10017000F7FF03F097FC00F076F803B4FFF7F2FF07
:1001800003BC00F07DF8000009488047094800479B
:10019000FEE7FEE7FEE7FEE7FEE7FEE7FEE7FEE737
:1001A000FEE7FEE704480549054A064B7047000094
:1001B0000B340008ED0000086002002060080020F9
:1001C00060040020600400204FF0000200B51346D8
:1001D00094469646203922BFA0E80C50A0E80C5067
:1001E000B1F12001BFF4F7AF090728BFA0E80C5018
:1001F00048BF0CC05DF804EB890028BF40F8042B11
:1002000008BF704748BF20F8022B11F0804F18BF7D
:1002100000F8012B7047704770477047754600F033
:100220002BF8AE4605006946534620F00700854688
:1002300018B020B5FFF7B6FFBDE820404FF000062C
:100240004FF000074FF000084FF0000B21F00701BE
:10025000AC46ACE8C009ACE8C009ACE8C009ACE801
:10026000C0098D46704710B50446AFF300802046A4
:10027000BDE81040FFF781BF00487047FC01002037
:1002800001491820ABBEFEE72600020070470000BF
:1002900070B5194C617C00292DD030282BD335281E
:1002A00029D8217C04F13002042904D2217C505445
:1002B000207C401C2074257C002103200123042D78
:1002C0006174A074A16215D30B4D00202435165C17
:1002D0002E54401CC0B20428F9D3E1726373042089
:1002E000A07300F06FFB00F561702062BDE8704004
:1002F00002F0DABCA37170BD0000002010B5104CF4
:10030000A078052817D1607C002814D0607B0028D5
:1003100011D100F057FBA16A401A0CD4A07C01282F
:100320000AD9A07C401EA07400F04CFB00F57A7046
:10033000A0620120A07110BDBDE8104000F002B81D
:100340000000002005488178052906D1002141746C
:1003500003228274816201218171704700000020B4
:100360002DE9FC4172B6314CA07A0026A67262B625
:10037000012540B16573A57300F024FB00F56170A1
:10038000206202F0EDFD694601A802F01FFF03277D
:10039000012804D002280FD003281CD024E0607A62
:1003A00010BB65726573A57300F00CFB00F56170FE
:1003B000206202F0D5FD17E0607AA8B965730220CB
:1003C000A07300F0FFFA00F5617020629DF8000054
:1003D00002F08CFD08E06573A77300F0F3FA00F5F6
:1003E0006170206202F012FD607B002812D000F0E4
:1003F000E9FA216A401A0DD46673A07B01280BD05C
:10040000A07B03280FD0A07B04280CD0A77002F09B
:1004100045FCA673BDE8FC816572A670E670267186
:100420006671A571F5E700F029F9F2E700000020F8
:1004300070B53E4C0546A07868B93DA1284600F04D
:1004400035F920B93CA1284600F030F918B1BDE8D3
:10045000704000F0D3B8A07868B135A1284600F00C
:1004600025F920B934A1284600F020F918B1BDE8DB
:10047000704000F003B9A07858B1A078052818D0D2
:10048000A07802282FD12EA1284600F00FF9D0BB6A
:1004900034E02DA1284600F009F928B92BA12846FF
:1004A00000F004F900281ED0E078BDE8704000F0AC
:1004B000C5B825A1284600F0F9F820B923A128469F
:1004C00000F0F4F880B1207C04280CD2607C002875
:1004D00009D1012565740320A07400F073FA00F5BA
:1004E0007A70A062A57170BD1AA1284600F0DEF8EE
:1004F0000028F8D0BDE87040FFF724BF17A12846B8
:1005000000F0D4F808B101200BE016A1284600F055
:10051000CDF828B915A1284600F0C8F80028E2D087
:100520000020BDE8704002F01FBF00000000002066
:1005300065786974000000006469736C696B65001C
:100540006F70656E000000006F6B00006C696B657A
:1005500000000000696E76616C69640070616C6D0A
:1005600000000000636C6F736500000066697374BF
:10057000000000002DE9F0411F4C217B00292AD109
:10058000A0F130010A2926D2E17A04F12C050429D0
:1005900009D2E17A6854E07A401CE072E17A0022E4
:1005A000284602F0F9FAE07A042814D30122002048
:1005B000114E0346114624362F5C16F800C06745DD
:1005C00001D0E37209E0401CC0B20428F4D3E37206
:1005D0001AB16172A172BDE8F081217300F0F2F9E5
:1005E00000F57A70E061BDE8F04103480122042182
:1005F0002C3002F0D1BA00000000002010B500201D
:1006000001F092FB002002F0AFFE02F0D5FD0A4897
:10061000002141728172C1720173C1610174417420
:10062000032282748162417381738270C17001718F
:1006300041710121817110BD0000002070B50E4C88
:10064000012548B1012809D0022809D0002103283A
:100650000AD0A170A57170BDA570FBE7022009E06A
:1006600002F000FE042005E0217461740320A074F0
:10067000A1620520A070EDE70000002010B5002069
:1006800001F052FB002002F06FFE074800210174C8
:1006900041740322827481628170C1700171417161
:1006A0000121817110BD00000000002003E09A428A
:1006B00009D1401C491C02781AB10B78002BF6D1E5
:1006C00001E0087808B10020704701207047FEE77C
:1006D000704772B6FEE710B590F82110002202298B
:1006E00005D00421816380F82020012010BD01681D
:1006F0000B6823F00E030B6001680B6823F0010305
:100700000B6090F84030C46B012101FA03F3636081
:1007100080F8211080F82020104610BD10B590F808
:1007200021100024022903D00421816301243DE02B
:1007300001680A6822F00E020A6001680A6822F065
:1007400001020A601A4A0168914201D1012121E0A7
:10075000174A1432914201D110211BE0144A283269
:10076000914201D1891515E0114A3C32914201D1E3
:1007700089140FE00E4A5032914202D14FF4803179
:1007800008E00B4A6432914202D14FF4801101E03B
:100790004FF08071064A083A5160012180F821101B
:1007A000002180F82010416B01B18847204610BD20
:1007B0000800024070B5044600F004F90546601CCC
:1007C00002D004480078044400F0FCF8401BA0422A
:1007D000FAD370BD740000202DE9F84FDFF8B8910E
:1007E0000024A9F1040B23460F2709F1040AABF1F9
:1007F000040EC9E00125A5402A40AA427DD1674EDA
:10080000D1F804C0ACEB0608B44532D014DCBCF11E
:10081000030F3AD009DCBCF1000F2AD0BCF1010F64
:100820001CD0BCF1020F31D11DE0BCF1110F17D06B
:10083000BCF1120F2AD119E0B8F5881F19D006DCD7
:10084000B8F5803F15D0B8F5801F1FD111E0B8F57D
:10085000001F0ED0B8F5041F18D10AE0CB6815E0D0
:10086000CB681B1D12E0CB6808330FE0CB680C335C
:100870000CE08B682BB1012B4FF0080303D04561CE
:1008800004E0042302E0056100E00023FF2A01D810
:10089000064601E000F104064FEA840501D9A5F1FE
:1008A0002005D6F8008007FA05FC28EA0C0803FAB0
:1008B00005F548EA0508C6F800804D68ED0062D5E8
:1008C000374DAE6946F00106AE61AD6924F003060E
:1008D00005F001050095334D06EB050CDCF80850DA
:1008E000A607360F07FA06F825EA0805DFF8B880EC
:1008F000404503D14FF0000817E044E0DFF8AC803A
:10090000404502D14FF001080FE0DFF8A4804045D8
:1009100002D14FF0020808E0DFF89880404502D18C
:100920004FF0030801E04FF0040808FA06F848EA1F
:100930000508CCF808804D68D9F80060ED024D46F6
:1009400001D5164300E096432E604D68DAF800604A
:10095000AD02554601D5164300E096432E604D6822
:10096000DBF80060AD035D4601D5164300E0964319
:100970002E604D68DEF80060ED03754601D5164324
:1009800000E096432E60641C0D682A46E5407FF423
:1009900031AFBDE8F88F00000804014000001110DD
:1009A000001002400000014000080140000C01401E
:1009B00000100140001401400AB1016170470904B0
:1009C000FBE70000014880687047000074000020C9
:1009D00002488168027811448160704774000020E9
:1009E000074810B5016841F010010160032000F0D4
:1009F00075F80F2000F006F800F024F8002010BD74
:100A00000020024070B50D4D04464FF47A712878ED
:100A1000B1FBF0F00A490968B1FBF0F000F017FCF7
:100A200048B9102C07D200222146501E00F036F89B
:100A300000206C6070BD012070BD000074000020BB
:100A4000800000200C4808B5816941F001018161F6
:100A5000816901F001010091C16941F08051C161DA
:100A6000C06900F0805000900448416821F0E061C6
:100A700041F00071416008BD0010024000000140DB
:100A8000002809DB00F01F0201219140400980008D
:100A900000F1E020C0F8001170470000F0B40E4BE8
:100AA0001B680C46C3F30223C3F10705042D00D9CC
:100AB0000425191D072901D2002300E0DB1E0126B1
:100AC00006FA05F1491E214099409E40761E1640C7
:100AD0003143F0BC02F0D5BF0CED00E0064900F058
:100AE000070208684FF6FF03184040EA0220034A55
:100AF00010430860704700000CED00E00000FA05AC
:100B00002DE9F0470F46050061D0434E306800F0F4
:100B10000700B84209D2306820F00700384330603F
:100B2000306800F00700B84251D128683B4C81077B
:100B300012D5400703D5606840F4E0606060287813
:100B4000000703D5606840F4605060606068A96881
:100B500020F0F000084360602878C00728D068685B
:100B6000012810D02168022810D0890700292EDA28
:100B7000616821F0030101436160FFF723FF8046B4
:100B800041F288390DE021688903EFE78901EDE73B
:100B9000FFF718FFA0EB0801494502D90320BDE883
:100BA000F0876068696800F00C00B0EB810FEFD14E
:100BB000306800F00700B8420BD9306820F0070019
:100BC00038433060306800F00700B84201D001209F
:100BD000E5E72878400705D56068E96820F4E0601B
:100BE000084360602878000706D56068296920F40A
:100BF000605040EAC100606000F038F86168084A5F
:100C0000C1F30311515CC8400649086006480068FA
:100C1000FFF7F8FE0020C2E700200240001002406B
:100C2000E6430008800000207800002004480549C1
:100C300000684968044AC1F30221515CC84070470A
:100C40008000002000100240F643000804480549D7
:100C500000684968044AC1F3C221515CC84070472A
:100C60008000002000100240F64300080E4A516840
:100C70000E4801F00C03042B11D0082B0FD10C48A7
:100C8000C1F38343C903C05C0AD55168084AC1F364
:100C90004041921E515C054A5043B0FBF1F0704751
:100CA00004494843704700000010024000127A00D7
:100CB000D643000800093D002DE9F84F040070D02C
:100CC0002078C04DC00749D06868C0F38100012872
:100CD00007D06868C0F38100022809D16868C003A2
:100CE00006D52868800339D560680028E7D035E04C
:100CF0006068B0F5803F0BD010B1B0F5A02F11D0D7
:100D0000286820F480302860286820F4802002E0E1
:100D1000286840F480302860606890B1FFF752FE88
:100D200006460AE0286840F480202860F0E700BF0B
:100D3000FFF748FE801B642873D828688003F7D526
:100D40000CE0FFF73FFE064605E000BFFFF73AFE66
:100D5000801B6428F0D828688003F7D420789A4E46
:100D600080074FF001094FF0000839D5686810F08E
:100D70000C0F07D06868C0F38100022809D16868A9
:100D8000C00306D42868800714D52069012808D13B
:100D900010E02069B0B1C6F80090FFF713FE0746D7
:100DA00005E00AE1FFF70EFEC01B0228C4D8286840
:100DB0008007F7D52868616920F0F80040EAC10093
:100DC00028600DE0C6F80080FFF7FCFD074604E050
:100DD000FFF7F8FDC01B022823D828688007F7D446
:100DE000207800072CD57948A169D9B1C0F80090C6
:100DF000FFF7E8FD074604E0FFF7E4FDC01B02280B
:100E00000FD8686A8007F7D571484FF4FA51006827
:100E1000B0FBF1F0009000BF0098411E0091FAD2A3
:100E20000EE080E0C0F80080FFF7CCFD074604E04C
:100E3000FFF7C8FDC01B022875D8686A8007F7D481
:100E40002078400760D5E8690027C00008D4E86929
:100E500040F08050E861E869012700F08050009080
:100E60005C480168C90513D40168834641F4807168
:100E70000160FFF7A7FD824606E000BFFFF7A2FD75
:100E8000A0EB0A0064284ED8DBF80000C005F5D5B9
:100E9000E06801280AD008B1052813D0286A20F09C
:100EA00001002862286A20F0040002E0286A40F06D
:100EB00001002862E06841F2883B98B1FFF782FDAB
:100EC00082460BE0286A40F004002862EEE700BF8B
:100ED000FFF778FDA0EB0A0159455AD8286A800728
:100EE000F6D50CE0FFF76EFD824605E0FFF76AFDE0
:100EF000A0EB0A0159454CD8286A8007F6D41FB1E7
:100F0000E86920F08050E861E06988B36968C1F35E
:100F10008101022944D00228C6F8608004D0FFF77E
:100F200051FD044638E034E0FFF74CFD074604E08D
:100F3000FFF748FDC01B02282BD828688001F7D492
:100F4000206AB0F5803F05D16868A16820F40030C0
:100F500008436860D4E908010843696821F4741102
:100F600008436860C6F86090FFF72CFD044606E071
:100F700025E000BFFFF726FD001B022809D82868DE
:100F80008001F7D51BE000BFFFF71CFD001B022806
:100F900002D90320BDE8F88F28688001F4D40EE060
:100FA0000128F7D06868226A00F48031914204D1A8
:100FB000616A00F47010884201D00120EAE7002045
:100FC000E8E7000000100240000042428004424274
:100FD000800000200070004070B5040009D0606AF5
:100FE000002540B125616561A56294F8510040B1CA
:100FF0000CE0012070BD6068B0F5827FF4D0E5613F
:10100000F2E784F85050204600F040F8022084F8BF
:1010100051002068016821F040010160A088218909
:1010200000F4827001F404410843A18901F40061D5
:101030000843217C01F002010843217D01F00101F8
:101040000843218B01F400710843217F01F038012E
:10105000084394F8201001F080010843218D01F429
:101060000051084321680860A069042101EA10408A
:10107000216848602068C16921F40061C16165652B
:10108000012084F85100002070BD000000B585B03B
:101090000021009101910291039100680F4988425B
:1010A0001AD10F48816941F480518161816901F44D
:1010B00080510491816941F0040181618069694630
:1010C00000F004000490A020009002200190032072
:1010D00003900448FFF780FB05B000BD00300140DD
:1010E00000100240000801402DE9F84F98461646CE
:1010F0008A460446FFF766FC814694F851000128B1
:101100001ED1BAF1000F73D0002E71D094F85000A8
:10111000012815D0012784F85070032084F851006D
:1011200000256565C4F830A0A686E686A563A58778
:10113000E58765642564A068B0F5004F03D00CE036
:101140000220BDE8F88F2068016821F040010160AD
:101150002068016841F48041016020680168490607
:1011600003D4016841F040010160E068B0F5006F10
:10117000606803D048B3012E27D047E008B1012EA4
:101180001FD1206B21680088C86006E02068816854
:10119000890709D5216B0988C160206B801C2063F9
:1011A000E08E401EE0860CE0FFF70CFCA0EB09018E
:1011B000414503D3B8F1FF3F03D035E0B8F1000F4C
:1011C00032D0E08E0028E1D123E0206B2168007846
:1011D000087306E02068816889070AD5216B0978C1
:1011E0000173206B401C2063E08E401EE0860DE002
:1011F0002BE0FFF7E7FBA0EB0901414503D3B8F172
:10120000FF3F03D010E0B8F1000F0DD0E08E0028B2
:10121000E0D14A464146204602F02EF808B120208F
:101220006065A06830B109E084F8517084F85050CE
:10123000032086E72068C1688068009084F85170B8
:1012400004F8505F60680028F3D0012079E710B5FA
:10125000401EB0F1807F01D3012010BD4FF0E0248B
:1012600060610F21601702F00CFC0020A0610720D4
:101270002061002010BD000070B590F83C20012ACC
:1012800026D0012480F83C40022280F83D200368EB
:101290005A689D6822F070060A6832435A600D4B06
:1012A00002689A4208D0B2F1804F05D00A4B9A42A8
:1012B00002D00A4B9A4204D1496825F080031943B1
:1012C000916080F83D40002180F83C10084670BDD8
:1012D000022070BD002C01400004004000080040C6
:1012E00010B5040003D094F83D0010B107E00120D0
:1012F00010BD002084F83C00204600F01FF80220BA
:1013000084F83D00211D206802F080F8012084F857
:10131000460084F83E0084F83F0084F8400084F8DA
:10132000410084F8420084F8430084F8440084F8C3
:10133000450084F83D00002010BD000008B501689C
:101340000B48B1F1804F0BD00A4A914207D1C169D5
:1013500041F00401C161C06900F00400009008BDC3
:10136000C16941F00101C161C06900F00100F5E708
:10137000001002400008004070B5044690F83C00A0
:101380000025012817D0012684F83C60022084F84B
:101390003D002068826822F0770222F47F4282605A
:1013A0000868502838D00DDC20284FD005DC90B3D9
:1013B000102811D14AE0022070BD302846D04028C4
:1013C0000AD13BE060282FD070280DD0B0F5805FA7
:1013D00003D0B0F5005F12D0012584F83D600020F5
:1013E00084F83C00284670BDCB68D1E90121206813
:1013F00002F055F82068816841F0770109E0CB6878
:10140000D1E90121206802F04AF82068816841F49E
:1014100080418160E1E719E0CA684968206802F00C
:10142000F3F85021206806E0CA684968206802F095
:10143000FCF86021206802F03CF8CEE7CA684968F1
:10144000206802F0E1F840212068F4E722680146B4
:101450001046F0E700B585B000210091019102919E
:101460000391026814480221B2F1804F14D0134B4B
:101470009A420FD1826942F0080282618069039129
:1014800000F0080004904020CDE9000169460C48B6
:10149000FFF7A2F905B000BD826942F00402826143
:1014A0008069039100F0040004900120CDE900015F
:1014B00069460448ECE700000010024000080040C4
:1014C000000C01400008014070B5044690F83C0053
:1014D00000260D4601280FD0012084F83C006AB197
:1014E000042A1DD0082A2FD00C2A3FD00126002024
:1014F00084F83C00304670BD022070BD206801F0C9
:10150000E1FF2068816941F00801816120688169FB
:1015100021F004018161206881692A69114311E089
:10152000206801F0F7FF2068816941F40061816162
:101530002068816921F480618161206881692A695C
:1015400041EA02218161D2E7206802F00FF82068A9
:10155000C16941F00801C1612068C16921F004013D
:10156000C1612068C1692A69114311E0206802F055
:1015700029F82068C16941F40061C1612068C1692E
:1015800021F48061C1612068C1692A6941EA0221B0
:10159000C161ACE710B5040003D094F83D0010B170
:1015A00007E0012010BD002084F83C00204600F038
:1015B0001EF8022084F83D00211D206801F026FF5E
:1015C000012084F8460084F83E0084F83F0084F847
:1015D000400084F8410084F8420084F8430084F815
:1015E000440084F8450084F83D00002010BD704799
:1015F00010B50446022249B104290ED0082913D09F
:1016000094F84100012816D0012010BD94F83E0046
:101610000128F9D184F83E200FE094F83F0001281A
:10162000F2D184F83F2008E094F840000128EBD183
:1016300084F8402001E084F841200122206801F074
:1016400021FF0F492068884203D1426C42F40042D6
:1016500042642068884208D0B0F1804F05D0094923
:10166000884202D00849884204D1816801F007010C
:10167000062903D0016841F001010160002010BD7E
:10168000002C0140000400400008004070470000AA
:1016900000680549884201D102F0CAB8034988426E
:1016A00001D102F0CFB8704700380140004400403B
:1016B000F8B5016804460868CA684B6910F00F0F56
:1016C0004FF0000559D003F0010602F4907737433C
:1016D00065D0C10705D0D10503D5616C41F001018A
:1016E0006164410705D5D90703D0616C41F002015F
:1016F0006164810705D5D90703D0616C41F004010D
:101700006164010707D502F02001314303D0616C09
:1017100041F008016164616C00293AD0800604D56B
:10172000900602D5204602F0C6F820684069616C38
:10173000C0F38010090700D460B3204602F094F88B
:1017400020684069400621D52068143050E8001F09
:1017500021F0400140E80012002AF5D1E06BA8B169
:101760006D494163E06BFEF7D9FF002811D0E06BB3
:10177000416B01B0BDE8F040084783060FD59306E2
:101780000DD52046BDE8F84002F095B82046FFF799
:101790007FFFF8BD2046FFF77BFF6564F8BD266B31
:1017A0002023012E7CD1C6067AD5D60678D50868C6
:1017B0004868009048694FF00206400640D5E16B4A
:1017C000086840680004000CE8D0A28D8242E5D988
:1017D000E085886920282DD020680C3050E8001F53
:1017E00021F4807140E80012002AF5D120681430FD
:1017F00050E8001F21F0010140E80012002AF5D155
:101800002068143050E8001F21F0400140E8001229
:10181000002AF5D184F84230256320680C3050E866
:10182000001F21F0100140E80012002AF5D1E06B02
:10183000FEF751FF6663A08DE18D401A81B22AE068
:10184000A08DE18D401A81B2E08D0028A6D000293C
:10185000A4D022680C3252E8000F20F4907042E8C5
:101860000007002FF5D12068143050E8002F22F037
:10187000010240E80027002FF5D184F842302563AB
:1018800020680C3050E8002F22F0100240E80023BE
:10189000002BF5D166632046FFF7F8FEF8BDFFE7A1
:1018A00005062BD5150629D594F841002128F5D138
:1018B000A068B0F5805F01D12069B0B1206A411CF9
:1018C0002162216800784860E08C401E0004000C12
:1018D000E084E3D12068C16821F08001C160206804
:1018E000C16841F04001C160D8E7206A0088C0F3B8
:1018F00008004860206A801C2062E5E74006CDD5DC
:101900005006CBD5CA68204622F04002CA6084F84F
:10191000413000F0CDF8C1E75938000870B5040037
:1019200004D094F84100002510B106E0012070BDFC
:1019300084F84050204600F023F8242084F8410029
:101940002068C16821F40051C160204602F014F8FB
:101950002068016921F4904101612068416921F00A
:101960002A0141612068C16841F40051C160656489
:10197000202084F8410084F842006563002070BD97
:1019800070B586B0002400940194029403942E4E06
:1019900003682E49022003222D4DB34226D18B69C4
:1019A00043F480438B618B6903F4804304938B6918
:1019B00043F004038B618969039201F004010491EF
:1019C0000102CDE9001069462846FEF705FF2815FB
:1019D000CDE90004694628460294FEF7FDFE002288
:1019E00011462520FFF75AF8252028E0194EB3426A
:1019F00027D1CB6943F40033CB61CB6903F40033C7
:101A000004938B6943F004038B618969039201F0AD
:101A1000040104910421CDE9001069462846FEF72F
:101A2000DBFE0820CDE90004694628460294FEF753
:101A3000D3FE002211462620FFF730F82620FFF7BC
:101A40001FF806B070BD00000038014000100240D1
:101A5000000801400044004090F84230202B01D0A3
:101A60000220704721B11AB10023036301F0E0BFE7
:101A70000120704710B500680A4A0B49904206D110
:101A8000C87C01F0E5FDBDE8104001F0D1BE074A79
:101A9000904206D1087D01F0AFFBBDE8104001F097
:101AA000D1BE10BD003801400000002000440040BD
:101AB0007047FEE730B585B000241C4800940194BF
:101AC00002940394816941F020018161816901F0F0
:101AD00020010491816941F004018161816901F073
:101AE00004010491816941F0080181618069104D10
:101AF00000F008000490002247F201012846FEF79A
:101B00005BFF012240F202412846FEF755FF47F2F3
:101B1000034000900120CDE90104022003906946B2
:101B20002846FEF759FE05B030BD00000010024007
:101B3000000C0140104810B50E4901604FF482714D
:101B4000416000218160C1604FF400720161C0E911
:101B500005121022C0E90721416281620A21C16297
:101B6000FFF73AFA002803D0BDE81040FEF7B1BDF8
:101B700010BD0000003001408400002010B58EB080
:101B800000240794089409940A940B941C21684635
:101B90000C94FEF719FB1E484FF08041016047216D
:101BA000C0E9011440F2E731C0E9031480218161EA
:101BB000FFF796FB08B1FEF78CFD4FF480500790BD
:101BC00007A91348FFF7D8FB08B1FEF782FD1048BC
:101BD000FFF7E0FC08B1FEF77CFD0B940BA90C4865
:101BE0000C94FFF749FB08B1FEF773FD6020CDE9C7
:101BF000000402940022694605480494FFF764FC3F
:101C000008B1FEF766FD0248FFF724FC0EB010BDD8
:101C1000DC00002010B58EB00024079408940994CD
:101C20000A940B941C2168460C94FEF7CDFA2048C8
:101C30001E4901604721C0E9011444F61F61C0E953
:101C4000031480218161FFF74BFB08B1FEF741FDD2
:101C50004FF48050079007A91548FFF78DFB08B196
:101C6000FEF737FD1248FFF795FC08B1FEF731FD8E
:101C70000B940BA90E480C94FFF7FEFA08B1FEF77F
:101C800028FD602000904FF47A70CDE90104002215
:101C9000694607480494FFF717FC08B1FEF719FDE1
:101CA0000348FFF7D7FB0EB010BD0000000800404E
:101CB000240100200C4810B50A4901604FF4E131BD
:101CC0004160002181600C22C160C0E90412816181
:101CD000C161FFF723FE002803D0BDE81040FEF7E6
:101CE000F8BC10BD003801406C0100200C4810B554
:101CF0000A4901604FF4E1314160002181600C220A
:101D0000C160C0E904128161C161FFF707FE0028CC
:101D100003D0BDE81040FEF7DCBC10BD004400401D
:101D2000B4010020FEE700000D49B0F57A7F096894
:101D300003D340F2E73048630BE0486350B1B0F59D
:101D4000967F01D8012005E0B0F5167F01D802206A
:101D500000E003200349087001204870704700002C
:101D6000DC00002000000020FEE72DE9F0410D46D8
:101D70000746A84204D1BDE8F041084600F000BF84
:101D8000012D23D0012600246000704341B2384663
:101D900000F066FA1020FEF70DFD641CE4B2032C7F
:101DA000F2D9032476426000704341B2284600F025
:101DB00057FA1020FEF7FEFC641E14F0FF04F2D167
:101DC0002846BDE8F041002100F04ABA4FF0FF3646
:101DD000D9E700002DE9F84F1E460C468346052A38
:101DE00058D82D481423855C002000900E225846B8
:101DF00000F008FCE8070BF1030706D0B8B2022395
:101E000008222146009600F0FDFBA90704F1020A12
:101E10000BF10C0908D51FFA8AF11FFA89F0072384
:101E20000222009600F0EEFB690704F10B0808D5CA
:101E30001FFA88F11FFA89F007230222009600F0AA
:101E4000E1FB280708D504F1120081B2B8B20223E1
:101E50000822009600F0D6FBE80607D51FFA88F1A5
:101E6000072302225846009600F0CCFBA80607D5AF
:101E70001FFA8AF1072302225846009600F0C2FB9F
:101E8000680607D50934A1B2B8B202230822009629
:101E900000F0B8FBBDE8F88F663C00082DE9FC4770
:101EA0000D46DDE90A181C461646074611B14FF6E5
:101EB000E07001E040F2FF705FEA080202D04FF4E8
:101EC000FC6201E04FF62052914609B1022100E088
:101ED0000121CDE9000123B232B229B238B200F0BB
:101EE00086F85FEA0803A4F1080205F1040107F18E
:101EF00004004FF6FF7A05EB54081FD040F641036B
:101F0000009393B2A6F10C0292B289B280B200F0B3
:101F100079FB0320B6FBF0F20A3CA3B26D1D07EB80
:101F20005604A9B2A0B2CDF8009000F06BFB241DBE
:101F30001FFA88F1A0B2CDF800A010E093B2A6F18C
:101F4000080292B289B280B2CDF8009000F05AFB3C
:101F5000B8190B381FFA88F180B2CDF800A003231E
:101F60001A4600F04FFBBDE8FC872DE9FC471F46F1
:101F70000AB1122400E00E240122CDE900726300B0
:101F80000E46A1EB04080546A0EB04091A460FFA19
:101F900088F10FFA89F000F02AF808F10401A81E70
:101FA00009B2E31F052200B2009700F068FBB01EE3
:101FB00001B2E81C0523621F00B2009700F05FFB2E
:101FC00009F10500F11C00B20523A21F09B2009718
:101FD00000F055FB4FF6FF700723F61EED1E009034
:101FE0001A4631B228B200F04AFBBDE8FC872DE961
:101FF000F8431E46DDE9085491460F4680462346C5
:10200000009500F03CFBB819001B01B223464A467C
:102010004046009500F033FB3346224639464046A1
:10202000009500F02CFB08EB0900001B00B23346C2
:1020300022463946009500F022FBBDE8F8830000F7
:102040002DE9FC410C4605461BB14FF6FF770220F7
:1020500001E017460120CDE900201C231A4621B2D9
:1020600028B2FFF7C4FF04F1110081B2681D80B2ED
:1020700006231222009700F0C5FA04F1090081B28C
:1020800005F10B0080B20D230522009700F0BAFA8B
:102090005FF0000606F001002044401D81B206EB0F
:1020A00086002844401D80B20F230322009700F0D1
:1020B000A9FA761CF6B2042EECD30C341535A1B275
:1020C000A8B208230322009700F09CFABDE8FC8127
:1020D0002DE9F04389B0984600F11003DDF84090F7
:1020E000802B2DD801F11003802B29D8164B03EB40
:1020F000421710231A4600F061FC002480266D462A
:102100000020620002EBD00100F00703795C26FAA0
:1021100003F3194201D0414600E049460B0A05F895
:10212000103005EB4003401CC0B259701028E9D3B1
:102130002021684600F0CAFF641CE4B2102CDFD3F3
:1021400009B0BDE8F0830000F44000082DE9F04735
:102150008CB0994600F11803DDF850A0802B3CD8D4
:1021600001F11803802B38D81D4B03EB42171823BD
:102170001A4600F023FC002418254FF080086E4614
:102180002001B0FBF5F001060020CB0D4246010115
:10219000B1FBF5F1C9B203EBD10C01F0070117F85F
:1021A0000CC022FA01F11CEA010F01D0494600E0FF
:1021B00051464FEA112C06F810C006EB400C401CAB
:1021C000C0B28CF801101828E1D33021684600F025
:1021D0007DFF641CE4B2182CD2D30CB0BDE8F087AC
:1021E000F44000082DE9F0438DB09846DDF850909A
:1021F00080282FD280292DD2184B02EBC20203EB8C
:10220000C20718231A4600F0D9FB002480266D4629
:10221000002004EB440200BF02EBD00100F00703F2
:10222000795C26FA03F3194201D0414600E04946A1
:102230000B0A05F8103005EB4003401CC0B2597082
:102240001828E9D33021684600F040FF641CE4B24E
:10225000182CDDD30DB0BDE8F0830000743C0008FD
:102260002DE9F34F83B00024522380221D21204604
:10227000009400F0C7F94FF6E07BCDE900B40823E5
:10228000854A0421002000F09AF91F2000900223C3
:1022900070221821082000F0B5F940F2FF7000907C
:1022A00001235C221B21122000F0ACF900260398C8
:1022B0003044C7B2042F00D3002766B1049800252C
:1022C0004C3080465DB120244FF038094FF04A0A67
:1022D00041F6E3000AE0049801250830F1E72724DD
:1022E0004FF02E094FF03D0A40F641000090534652
:1022F0004A462146404600F0C2F915B1022158462F
:1023000002E0012148F21040CDE9000153464A465F
:1023100021464046FFF76BFE4FB1012F30D0022F10
:1023200058D0A9F11C00002D75D05A4686E00DB199
:102330005B4601E040F2FF7309EBD97008EB6000E7
:1023400004F1190180B22A46FFF70FFEA9F120001F
:1023500025B141F6E3014FF6FF7202E040F641017C
:102360000A01CDE9002100EBD07204EB0A0108EB71
:1023700062001639484A022389B280B2303A80E0BE
:10238000A9F118000021CDE9005100EBD07208EB53
:10239000620004F10C0180B220231822FFF77EFDB9
:1023A000A9F1200025B141F6E3014FF6FF7202E0EA
:1023B00040F641010A01CDE9002100EBD07204EBA7
:1023C0000A0108EB62001639334A022389B280B24F
:1023D0002E3A56E0A9F118000DB15A4601E040F23C
:1023E000FF7200EBD07308EB630004F10A0180B2C6
:1023F0002B4600F0A8F87DB141F6E3014FF6FF70DF
:10240000CDE9000104EB0A00163881B208F104009E
:1024100080B203230DE00FE040F641010801CDE951
:10242000000104EB0A00163881B208F1070080B2FF
:102430000223194A2A3A24E040F2FF7200EBD073DB
:1024400008EB630004F10D0180B22B46FFF7F8FDA5
:10245000A9F1200025B141F6E3014FF6FF7202E039
:1024600040F641010A01CDE9002100EBD07208EBF2
:10247000620004EB0A01084A163989B280B20223CD
:102480002C3A00F09CF8761CF6B2022EFFF40FAF47
:1024900005B0BDE8F08F00006C3C00082DE9FC4160
:1024A000164605460320CDE9006098460C4605F126
:1024B0000C0018231E2209B200B2FFF798FD04F1A8
:1024C000100081B2002705F1120080B20C23122205
:1024D000009700F097F8B8F1000F09D0E01D81B225
:1024E00005F1260080B203230A22009700F08AF843
:1024F00004F1180081B2262336222846009600F007
:1025000081F840F64100009004F11D0081B2681D81
:1025100080B21C232C2200F075F804F1270081B250
:1025200005F1190080B20C230522009600F06AF82C
:10253000233417350923A1B2A8B21A46009600F039
:1025400061F8BDE8FC812DE9FC4116460C460546C4
:102550000BB1022000E00120CDE900602023182209
:1025600021B228B2FFF743FD40F641000090601D04
:1025700081B2281D80B20823102200F043F804F134
:10258000120081B26F1DB8B202230E22009600F035
:1025900039F804F1180081B2B8B202230E22009675
:1025A00000F030F80120CDE9006008230834083538
:1025B0001A4621B228B2FFF71AFDBDE8FC812DE9C9
:1025C000F84F1D46DDE90A9816468A46074600245C
:1025D0000BE0CDF8008007EB0410325D80B24B4673
:1025E0005146FFF775FD641CE4B2AC42F1D3BDE87F
:1025F000F88F08B58023002100901A46084600F0A5
:1026000001F808BDF0B5A1B01D46269E14468028ED
:1026100033D2802931D2002C2FD0002D2DD0021999
:10262000802A02D9C0F1800294B24A19802A02D9C4
:10263000C1F1800295B20022370A6B46F6B29F5470
:1026400003EB020C921C92B28CF80160802AF6D344
:102650002B46224600F0B2F96C434FF6FF760AE0B3
:10266000402C01D9402500E0A5B206EA45016846A4
:1026700000F02CFD641B002CF2D121B0F0BD38B568
:10268000002A049C29DD002B27DD002802DA1044F3
:1026900002B20020002905DA19440BB2002180287B
:1026A0001BDA03E0802818DA802916DA002A14DD04
:1026B000002B12DD8518802D02DDC0F1800212B2E0
:1026C000CD18802D02DDC1F180031BB29BB292B206
:1026D00089B280B20094FFF795FF38BD10B5894CE0
:1026E000002202212046FEF767F91420FEF762F867
:1026F000012202212046FEF75FF97820FEF75AF802
:10270000012000F0A3FC7820FEF754F8112000F01F
:102710009DFC7820FEF74EF8B12000F097FC0120D8
:1027200000F0B4FC2C2000F0B1FC2D2000F0AEFC39
:10273000B22000F08BFC012000F0A8FC2C2000F05F
:10274000A5FC2D2000F0A2FCB32000F07FFC0120AE
:1027500000F09CFC2C2000F099FC2D2000F096FC51
:10276000012000F093FC2C2000F090FC2D2000F0C4
:102770008DFCB42000F06AFC072000F087FCC0202C
:1027800000F064FCA22000F081FC022000F07EFC3E
:10279000842000F07BFCC12000F058FCC52000F034
:1027A00075FCC22000F052FC0A2000F06FFC0020F3
:1027B00000F06CFCC32000F049FC8A2000F066FCAD
:1027C0002A2000F063FCC42000F040FC8A2000F0C6
:1027D0005DFCEE2000F05AFCC52000F037FC0E2016
:1027E00000F054FC362000F031FCC82000F04EFC14
:1027F000E02000F02BFC0F2000F048FC1A2000F035
:1028000045FC0F2000F042FC182000F03FFC2F2078
:1028100000F03CFC282000F039FC202000F036FCC1
:10282000222000F033FC1F2000F030FC1B2000F0C1
:102830002DFC232000F02AFC372000F027FC00208C
:1028400000F024FC072000F021FC022000F01EFC18
:10285000102000F01BFCE12000F0F8FB0F2000F03E
:1028600015FC1B2000F012FC0F2000F00FFC1720BD
:1028700000F00CFC332000F009FC2C2000F006FCDA
:10288000292000F003FC2E2000F000FC302000F096
:10289000FDFB302000F0FAFB392000F0F7FB3F2071
:1028A00000F0F4FB002000F0F1FB072000F0EEFB4D
:1028B000032000F0EBFB102000F0E8FBF02000F01C
:1028C000C5FB012000F0E2FBF62000F0BFFB00207A
:1028D00000F0DCFB3A2000F0B9FB052000F0D6FB4D
:1028E000132000F0B3FB0A20FDF764FF292000F05D
:1028F000ADFB7820FDF75EFFBDE810400020FFF73C
:1029000078BE0000000C01402DE9FC5F00244FF66A
:10291000E07527466E114FF0010840F641094FF06F
:10292000060A4FF4FC6B0020FFF763FECDE9005769
:102930000423214A0C212020FFF741FE1E4A2021BA
:102940000423121D0846CDE90067FFF738FEE007B3
:1029500001D02B4600E0334604F001024E212A202C
:10296000FFF703FB022C01D9012100E00021CDE992
:10297000008128231C223A214E20FFF78FFA0523DD
:10298000582271211420CDF80090FFF73BFE58200B
:10299000641C6043B0FBFAF2052371211420CDF8CA
:1029A00000B0FFF72FFE5020FDF704FFE4B2062C25
:1029B000B9D3BDE8FC9F0000453C0008F8B5871876
:1029C000851CCE18CC1C2A20B61C7F1C00F03EFBB8
:1029D000280A8DF800008DF80150380A8DF80200A1
:1029E0008DF803700421684600F070FB2B2000F086
:1029F0002DFB200A8DF800008DF80140300A8DF87B
:102A000002008DF803600421684600F05FFB2C2073
:102A100000F01CFBF8BD2DE9FF4F83B09946054639
:102A2000042802D94FF0040500E001D34FF0030061
:102A30004FF00C080290032902D0022902D003E0D3
:102A40000E2000E00D2080460020FFF7D2FD00247C
:102A500040F2FF7B5E465B46224606211020009432
:102A6000FFF7C0FB33460122062128200094FFF720
:102A7000B9FB33461022062142200094FFF766FB83
:102A800033461122062158200094FFF75FFB1F20D8
:102A900000900223602222211020FFF7B3FD059849
:102AA00010B14FF6E07200E05A4601232721322090
:102AB000FFF7C6FA0024AC4202D24FF4FC6707E0ED
:102AC0000298844202D14FF6E07701E048F21047C5
:102AD0000120CDE9007004EB440000EBC40A18218A
:102AE00001EB4A00064614230E224821FFF77FFA25
:102AF000B9F1000F10D0AC420ED219F80420A2F1A7
:102B00003000052800D8C2B2192101EB4A004FF469
:102B1000FC634821FFF75EF9304605230E225E2153
:102B20000097FFF76FFD641CE4B2042CC3D3059833
:102B300048B1002000904FF6E073424664213420F3
:102B4000FFF750FB10E00120CDE900B05C461223F6
:102B50002A2265212B20FFF74AFA03231E226D212A
:102B600031200094FFF74EFD48F210400090022300
:102B70003C2279212220FFF745FD07B0BDE8F08F08
:102B800010B504460020FFF734FD2046BDE8104094
:102B90000021FFF765BB00002DE9F74F054682B025
:102BA0000C460020FFF725FD00264FF6E077CDE923
:102BB00000760423384A19462020FFF700FD40F232
:102BC000FF78354ACDE900860423121D1621202006
:102BD000FFF7F5FC1F200090022364222A210E201B
:102BE000FFF710FD012350222D211820CDF8008081
:102BF000FFF708FD00233A4630212520FFF74EFC61
:102C000048F210484FF001094FF0180A4FF4FC6BDE
:102C1000A64201D2584600E04046CDE9000906EB45
:102C2000460000EBC6070AEB470014230E225B2187
:102C3000FFF7DDF96DB1A6420BD2A85D303805284B
:102C400007D8C2B2192000EB47005B465B21FFF7B3
:102C5000C1F8761CF6B2042EDAD340F6410000909B
:102C600005235C2277211220FFF7CCFC049838B1B1
:102C70004FF4784003234822782100901C2005E07F
:102C80000123502279211820CDF80080FFF7BAFCEB
:102C900005B0BDE8F08F00004D3C00080022114651
:102CA0001046FFF779BF00001CB50020FFF7A1FC1C
:102CB0004FF4FC640123224620213220FFF7C0F9A3
:102CC0000020CDE900400423074A54212020FFF7CB
:102CD00076FC40F2FF70009003233C226E212220FC
:102CE000FFF790FC1CBD00005D3C0008F8B50546F0
:102CF0000020FFF77EFC00244FF6E07633462246A4
:102D0000062110200094FFF76DFA334601220621B8
:102D100028200094FFF766FA33460222062140205D
:102D20000094FFF75FFA33460322062158200094EF
:102D3000FFF758FA33460422222110200094FFF7AF
:102D400051FA33460522222128200094FFF74AFA3F
:102D500033460622222140200094FFF743FA3346EF
:102D60000722222158200094FFF73CFA1F200090F0
:102D70000223702240210820FFF744FC76113346DD
:102D8000082244211C200094FFF72CFA3346092224
:102D9000442134200094FFF725FA2846BDE8F84086
:102DA00000F0FEB87CB50020FFF723FC002540F2C0
:102DB000FF70CDE900050523134A08211820FFF70D
:102DC000FEFB1F2000900223602222211020FFF72B
:102DD00019FC4FF6E074012322462F213420FFF71F
:102DE000B2FB094A0223D21C62213020CDE9004502
:102DF000FFF7E5FB48F21040009002233C227721C8
:102E00002220FFF7FFFB7CBD613C00081CB50020C1
:102E1000FFF7EFFB4FF4FC6401232246232134200B
:102E2000FFF791FB0020CDE900400423074A582119
:102E30002020FFF7C4FB40F2FF70009003233C22E8
:102E400070212220FFF7DEFB1CBD0000593C00086A
:102E5000F8B505460020FFF7CCFB00244FF6E076DE
:102E600033460A22062102200094FFF76FF9334609
:102E70000922062116200094FFF768F93346042240
:102E800006212A200094FFF7ADF9334605220621DA
:102E90003F200094FFF7A6F906223346114654203E
:102EA0000094FFF79FF9334607220621682000941B
:102EB000FFF798F91F200090022370222421082098
:102EC000FFF7A0FB7611334608222A212820009420
:102ED000FFF788F9334609222A2140200094FFF7A2
:102EE00081F92846BDE8F84000F085B82DE9F8439F
:102EF0000646032802D34FF4784501E04FF62055EB
:102F00000020FFF776FB00232A4618212520FFF733
:102F1000C5FA042354225C2116200095FFF772FBAA
:102F200040F6410000900223442268211E20FFF752
:102F300069FB002448F210482A27B44201D22846EF
:102F400000E040460090082307EB04101A46702169
:102F5000FFF758FB641CE4B2032CEED3BDE8F88302
:102F60001CB50020FFF745FB00204FF4FC64CDE9C1
:102F700000400423094A08212020FFF720FB0123F9
:102F800022462D212520FFF789FA042350227021A3
:102F900018200094FFF736FB1CBD0000553C0008CC
:102FA000F8B50A250B244FF4FC6601281CD0022832
:102FB0001CD003281DD04FF4784600272023802200
:102FC000602138460097FFF71DFB33462A466221F1
:102FD00028200097FFF706F9334622466221402059
:102FE0000097FFF7FFF8F8BD0C2500E00D250F2432
:102FF000E3E70E25FBE72DE9FC41044601281FD03D
:103000004FF478450C2700263A238022462130468B
:103010000096FFF7F7FA012C16D000200121CDE928
:1030200000101C23242246212E20FEF737FF2B46BA
:103030003A466A2138200096FFF74AF8BDE8FC813D
:103040004FF4FC650B27DEE70120E7E731B50D4DB6
:103050004FF48064002221462846FDF7ADFC002293
:1030600001212846FDF7A8FC4FF0FF3301226946F5
:103070000548FEF739F8012221462846FDF79CFC59
:1030800038BD0000000C01408400002031B50D4D1A
:103090004FF48064002221462846FDF78DFC012272
:1030A00011462846FDF788FC4FF0FF3301226946A0
:1030B0000548FEF719F8012221462846FDF77CFC59
:1030C00038BD0000000C0140840000202DE9F041D3
:1030D0000E4F0C4605464FF48066002231463846B6
:1030E000FDF76AFC012211463846FDF765FC4FF0FA
:1030F000FF33224629460648FDF7F6FF314638469B
:10310000BDE8F0410122FDF757BC0000000C014072
:103110008400002070470000F0B51A4900200A1F03
:10312000135C0B54401CC0B20428F9D315490E3966
:103130004878002501238C1D58B10020165C2654C8
:10314000401CC0B20428F9D30B704D70CD70032021
:1031500015E0087860B10020165C275CBE4207D1FC
:10316000401CC0B20428F7D30B71CD704B71F0BD79
:10317000C878032802D2C878401CC8700220487161
:10318000F0BD00006E0000200A4910B500208870D4
:10319000C8700871087048704871064A01460A32C2
:1031A000131D141F505458546054491CC9B20429AB
:1031B000F8D310BD60000020034800218170C17069
:1031C00001714170417170476000002070B5044684
:1031D00072B6084B587900225A7103F10E05AE5CA5
:1031E000A654521CD2B2042AF9D309B1DA780A7073
:1031F00062B670BD60000020194930B48C7800239D
:1032000001F10A020B2C29D2DFE804F0060B11149D
:103210001A171A1D1F212300042806D18878401C84
:1032200002E00C28FAD00020887030BC70470228D9
:10323000F9D1F3E73028F6D1F0E70428F3D1EDE730
:103240000028F0D1EAE71070E8E75070E6E79070E8
:10325000E4E7D0708B7030BCFFF75EBF8B70E4E7A3
:1032600060000020034801214170002141718170FC
:103270007047000060000020F8B515460E460B466A
:10328000009204460122022100F010F840B93346B2
:10329000002280212046009500F008F8002804D084
:1032A000606D40F0200060650320F8BD2DE9F84313
:1032B0001E46914688460446089DFDF783FB401B49
:1032C000351AFDF77FFB074625480068C0F3CB3071
:1032D000684338E0701C37D0FDF774FBC01BA84270
:1032E00003D215B1009860B32CE02068416821F04A
:1032F000E00141606068B0F5827F0BD1A068B0F555
:10330000004F02D0B0F5806F04D12068016821F031
:1033100040010160A06AB0F5005F09D12068016832
:1033200021F4005101602068016841F400510160FE
:10333000012084F85100002084F850000320BDE8EB
:10334000F8830025401E00902068816838EA01005B
:1033500004D000214945BDD10020F0E70121F9E763
:10336000800000207047000010B5002803D000BF87
:103370004FF4FA6001E04FF47A7009490968486334
:1033800002D04FF0010001E04FF00000054CE07169
:10339000FDF718FB00F59670A0610120207210BDAA
:1033A0002401002000000020FDF712BB30B58FB0D3
:1033B00028216846FCF708FF14210AA8FCF704FF3F
:1033C00001210804CDE90010002402940225049193
:1033D000CDE907504FF4E01009906846FDF76CFC0A
:1033E00008B172B6FEE70F20CDE90A054FF4806000
:1033F000CDE90C4002210AA80E94FDF781FB0028BC
:1034000001D072B6FEE70FB030BD7047F0B502686C
:10341000194B1A4C1A4D4FF08047984205D0B842CC
:1034200003D0A04201D0A84203D122F070064A681E
:103430003243984205D0B84203D0A04201D0A842FE
:1034400003D122F44074CA6822434C6922F08002FE
:10345000224302608A68C2620A688262984201D18D
:1034600009690163012141610169C90703D001694B
:1034700021F001010161F0BD002C01400004004079
:103480000008004010B501F01F030121046A9940B3
:103490008C430462016A9A401143016210BD10B569
:1034A000846842EA032224F47F440A432243826070
:1034B00010BD826822F070020A4342F00701816069
:1034C0007047000030B5036A026A22F0010202620E
:1034D0004268846924F073050C682C4323F00205CC
:1034E0008B682B430A4DA8420BD123F00805CB680B
:1034F00022F440722B434D6923F0040315438A697B
:103500002A434260846149684163036230BD000020
:10351000002C014030B5026A036A23F010030362F5
:10352000436884690D6824F4E64444EA05248D6800
:1035300022F0200242EA05120B4DA8420ED1CD68BE
:1035400022F0800242EA05124D6923F4406343EA07
:1035500085038D6922F0400243EA8503436084615C
:1035600049688163026230BD002C014030B5036AB6
:10357000026A22F4807202624268C46923F4007312
:1035800024F073050C682C438D6843EA05230C4D29
:10359000A8420ED1CD6823F4006343EA05234D69A8
:1035A00022F4405242EA05128D6923F4806342EA14
:1035B00005124260C4614968C163036230BD000006
:1035C000002C014030B5046A026A22F48052026283
:1035D0004268C3690D6823F4E64343EA05238D6816
:1035E00024F4005444EA0534064DA84204D14D6940
:1035F00022F4804242EA85124260C3614968016454
:10360000046230BD002C014010B5036A046A24F046
:1036100001040462846924F0F00444EA021423F0F3
:103620000A020A438461026210BD10B5036A046A8B
:1036300024F010040462846923F0A00324F470448D
:1036400044EA023243EA01118261016210BD0000C6
:103650002DE9F041644C617A91B1A0F14101192941
:1036600001D82030C0B2604DA0F130020121002607
:103670003435052A4AD8E6732E70A27822B111E0BB
:10368000BDE8F041FCF776BF31280BD3342809D8C8
:103690003138C0B2042803D2E07020716671A17184
:1036A000BDE8F081A178052903D0A178012904D0D3
:1036B0001BE0BDE8F041FCF7EBBD332815D83028FE
:1036C0000BD031280BD032280CD03328E8D140F26F
:1036D000E730BDE8F041FEF727BB0020F9E74FF4E3
:1036E0009670F6E74FF41670F3E7A178022901D13E
:1036F000352809D0A1780229D2D13028D0D1002094
:10370000BDE8F041FFF730BE0120F9E70D2868D091
:103710000A2866D0202864D0A0F161011A2960D25D
:10372000E17B072900D3E673E17B6854491CC8B2EA
:10373000E0732E542C482DA13430FCF7B7FF78BB32
:1037400029482BA13430FCF7B1FF48BB26482AA1F9
:103750003430FCF7ABFF18BB234829A13430FCF709
:10376000A5FFE8B9204828A13430FCF79FFFB8B97D
:103770001D4827A13430FCF799FF88B91A4826A1C3
:103780003430FCF793FF58B9174825A13430FCF7C3
:103790008DFF28B9144824A13430FCF787FF20B1ED
:1037A00011483430FCF744FE1BE0DFF83CC0E37BFB
:1037B0000CF1340C00210CF1080200200AE000BFDB
:1037C00052F821703F5C47B11CF800E0774504D106
:1037D000401CC0B29842F3D362E7491CC9B2092920
:1037E000EBD3E6732E705BE7000000206F6B0000E8
:1037F00065786974000000006F70656E000000005D
:10380000636C6F73650000006C696B6500000000FD
:103810006469736C696B650070616C6D0000000019
:103820006669737400000000696E76616C696400FB
:10383000012202490248FEF70FB9000013000020E0
:103840006C010020012202490248FEF705B9000080
:1038500014000020B401002010B5406A0021C18589
:10386000C184FDF715FF10BD01680C3151E8002F30
:1038700022F4907241E80023002BF5D10168143145
:1038800051E8002F22F0010241E80023002BF5D17E
:10389000016B012909D101680C3151E8002F22F098
:1038A000100241E80023002BF5D1202180F84210BE
:1038B00000210163704708B590F84210222901D019
:1038C000022008BD82684FF480539A4201D10169F9
:1038D00021B1816A9A421BD04AB10AE00268816A2A
:1038E0005268C2F308020A80816A891C08E00269F2
:1038F00072B10268526802F07F020A70816A491C44
:103900008162C18D491E0904090CC18503D01BE0E9
:1039100002685268F1E70168CA6822F02002CA60B2
:103920000168CA6822F48072CA6001684A6922F09C
:1039300001024A61202180F8421000214163026B9C
:10394000012A03D0FEF796F8002008BD0163016844
:103950000C3151E8002F22F0100241E80023002B27
:10396000F5D101680A68D20602D50A684968009153
:10397000818DFDF78BFEE7E770B5044600680169AD
:10398000E26821F44051114301612169A0680843B4
:10399000616908432168CA6841F20C639A43024393
:1039A000CA6020684169A26921F4407111434161F4
:1039B0001E492068884202D1FDF748F901E0FDF771
:1039C00035F900EBC00101EB001260686421800052
:1039D000B2FBF0F3B3FBF1F36FF018067343B2FBE5
:1039E000F0F5B2FBF0F605EB8305322303EB05158A
:1039F000B5FBF1F5B6FBF1F605F0F00505EB0615A4
:103A0000B2FBF0F6B2FBF0F0B0FBF1F06FF0180291
:103A1000504306EB800003EB0010B0FBF1F021688F
:103A200000F00F002844886070BD0000003801409D
:103A300081628285C28500214164222180F8421082
:103A4000016921B10168CA6842F48072CA600168E4
:103A50004A6942F001024A610068C16841F02001F0
:103A6000C1600020704700000148FDF721BE000042
:103A70006C0100200148FDF71BBE0000B4010020CE
:103A8000FEE70907090E002804DB00F1E02080F8BA
:103A90000014704700F00F0000F1E02080F8141DC2
:103AA0007047000008B5FCF79BFFFFF77FFCFEF7AF
:103AB00001F8FEF763F8FEF7FDF8FEF73BF8FEF7B6
:103AC000A9F8FEF713F9FFF75FFB00215748FDF750
:103AD0008FFD00215648FDF78BFD564C0122110346
:103AE0002046FCF769FF012251032046FCF764FFE2
:103AF00000224FF480412046FCF75EFFFEF7EEFD0A
:103B0000FEF702FFFFF7CAF84B4C0320A0704FF0FE
:103B100000094D4684F809904846FEF705F9002053
:103B2000FFF722FC657025726571A571FFF780FEB5
:103B3000FFF788FE4FEA0408FCF712FC98F80C0027
:103B4000444670B1FCF73EFFE169401A09D484F89D
:103B50000C9084F80B903848002211462C30FFF767
:103B60001BF8FCF7CBFB207A30B1FCF72BFFA169E7
:103B7000401A01D4012500E00025607928B9A07918
:103B800018B9607808B9002DD6D072B6A046214683
:103B9000A47891F803A008790A78009291F807B008
:103BA0004B798F794E784A4681F8059081F80690D6
:103BB00081F8019005B10A7262B613B15146FEF761
:103BC000D4F857B16CB1012C0FD0022C11D0042CB9
:103BD00013D0052C14D0FFF761F8FEB1012C1AD0D8
:103BE0001CE05046FEF7CCFFF7E70098FFF77EF8A1
:103BF000F3E75846FFF72CF9EFE7FFF7D3F8ECE7C8
:103C00000D4B98F81120303398F8121098F81000E6
:103C1000FEF701FFE1E70098FFF7C2F9002D8BD016
:103C2000022C89D15846FFF7E6F985E7DC00002031
:103C300024010020000C01400000002008090A09AE
:103C400000010D0E0F00010203040506070001022A
:103C500003040506070001020310111213141513C3
:103C6000160D0E0F10113F065B4F666D000102032B
:103C7000040506070000000000E01FFFF01FFF80A2
:103C80000018000018000018000FFFF01FFFF000E0
:103C900018000018000018007FFFFC7FFFFC0018D0
:103CA0000000180000180000180000380000F8009C
:103CB00000F000000000000000000000000000060E
:103CC00006000606000606007FBFE03F9F6006066E
:103CD00060079E607F1E60760F60061A6C06707C1F
:103CE0001E603C1830181FFFE03FFFE000606000DE
:103CF000E06001C0600780E03F07C0380780000037
:103D000000000000000000003000007000007000A3
:103D10000070003FFFE03FFFE038706038706038AF
:103D200070603FFFE03FFFE03870603870603870CF
:103D3000603FFFE03FFFE038700000700C00700C47
:103D4000003FFC003FF800000000000000000004FD
:103D500000000E00000E1FC00E1FC00E18C07FD83E
:103D6000C07FD8C00E18C00E18C01F18C01F98C042
:103D70001FD8C03ED8C03E18C06E18C06E30C00EEE
:103D800030C00E70CC0E60EC0EE0FC0E40780000EF
:103D9000000000000000000000007F9FFC61980808
:103DA000319800319818319B38319B303199B031BE
:103DB00099E03198E03FD8E03FD8F000D9B800DB77
:103DC000987EDB187EDA0000D80000D80007DFFC00
:103DD000078FFC020000000000000000000000004F
:103DE00001000001800001803FE1803FE180001F71
:103DF000F8001FFC00018C7FE18C7FE18C0E019CA0
:103E00000C031C0CC31818C31818631833F7187F59
:103E1000F6183C3E18001C180038F80030F000007E
:103E200000000000000000000060003FF01FFFC025
:103E30001E700000708000C1C00387800FFE000765
:103E4000FC000071C001C0E00F8FF01FFFF80C18DC
:103E5000180018000718C00E18F01C187838181829
:103E600030F80800700000000000000000000000B2
:103E700006000E07000C03001C7FF8187FFC398633
:103E800000338E007F0C007E18600E38700C7FF8B7
:103E9000187FF83F8DC03F8DC0380DC0000DC001A8
:103EA0009DC01F99CC7E39CC3070FC00E0F800003A
:103EB000000000000000000300000307000307608B
:103EC0000303706303383303103B0300137FFC03C9
:103ED0007FFC0307000707000F07801F07803B0FC9
:103EE00080730DC0230CC00318E0033870037038D2
:103EF00003F01C0360080000000000000000000048
:103F000030000070000070003FFFF87FFFF800E60F
:103F10000000C60001830003C3800771C01E30F893
:103F20007C1038300008001800199870199C30393E
:103F300088383181DC3181C861FF8000FF000000DA
:103F4000000000000000000606000E07000DFFFC48
:103F50000CFFFC1C00001C7FF03C7FF03C60307CC0
:103F60007FF06C7FE00DFFFC0DFFFC0D800C0D70F1
:103F7000640C7FF00C03000C03000C03000C030026
:103F80000C1F000C0E0000000000000000000000EC
:103F900000000000000018000018000018000018C1
:103FA00000001800061800061FF0061FF006180093
:103FB0000618000618000618000618000618000665
:103FC00018000618000618007FFFFC7FFFFC0000A9
:103FD00000000000000000000000000000000000E1
:103FE0000000000000000000007FFFFC7FFFFC7F5E
:103FF000FFFC0000000000000000000000000000C6
:1040000000000000000000000000000000000000B0
:1040100000000000000000000000000000000000A0
:1040200000000000000000000000001FFFE01FFF74
:10403000E0000000000000000000000000000000A0
:104040000000000000000000000000000000000070
:1040500000087FFFFC7FFFFC000000000000000064
:10406000000000000000000000000000001FFFF042
:104070001FFFF0080000000000000000000000002A
:10408000000007FFC00FFFC007FFC00000000000D6
:10409000000000000000000000000000007FFFFCA6
:1040A0007FFFFC0000000000000000000000000492
:1040B00003000C03000C63180C73380C33307F3B87
:1040C000707F03200C03001C7FF81F7FF83F8018CF
:1040D0003D80187DBFF86C3FF86C00180C00180C80
:1040E00000180C7FF80C7FF80C00180C001800006A
:1040F00000000000000003FC1F80008000803FFCE7
:10410000008000807FFE00800080008000800380AF
:1041100000000000084008407DF808481DC868E815
:10412000098A3B0E21043FF8030802080C08787046
:1041300000000000018001807FFE60066FF6030032
:104140000708399863F00CD07158064C1846638004
:10415000010000003FFC300C3FFC30C030C03FFE8F
:1041600030C030C027FC240C240C67FC440C000039
:104170000000000018301F3E3448654C01807FFE6F
:1041800040021FF018101FF018001FF818081FF841
:104190001800000001FE7D26112611FE11267D2645
:1041A00011FE1020102013FE1C20602003FE0000D2
:1041B00000000000001C3FE0018002100C601FC0E6
:1041C00003100C0C3FFE00800890108C208643806A
:1041D000000000001060102033FE24404C4078881E
:1041E000118C11FE245078D000D004907992431E97
:1041F000020000000100010001003FF82108210831
:104200003FF8210821083FF83FF82100010201FE94
:1042100000000000180018F818987E981898189850
:104220003C983C983E985898599819181B1A1A0EA1
:1042300000000000183018103E0022FE2A822A8258
:1042400022607E64227C2A702A6062604262463E5E
:10425000400000003FFC06200620062006207FFECE
:104260007FFE0620042004200C201820702000006F
:10427000000000000420042006603FFC3FFC018099
:10428000018001807FFE0180034006700C1C700ECF
:10429000000000002020302013FE002003FE7104E7
:1042A00011B4122013A010201BFE186010D8038632
:1042B000020000000100010001FC010401000100F6
:1042C0007FFE01000140017001180108010001009A
:1042D000010000003EFC22C422C43EFC01907FFE8F
:1042E00003800660781E3E7C224422443E7C2244A9
:1042F000000000003FF800081FF8001800187FFEBB
:104300000188199C09F007E019B0618E038402004E
:10431000000000000400060003000180018001C0CD
:104320000340026006200C300818181C700E600054
:1043300000000000030001807FFE600660060FF0B1
:1043400000007FFE0640044004400C401846707C8C
:10435000000000000058004C00403FFE304030405C
:104360003F4C224822782230222026726EDA430EF9
:1043700000000000184010C010FC35483730547859
:1043800057CE143014C81418146011CE103813E02E
:1043900001000000004000407C4004C004FE05888D
:1043A0003D8820C82050207020302C7038CC270643
:1043B00000020000006000607E60186019FE186650
:1043C00018661844184418443EC460840104071C4D
:1043D00002000000010202030405060708090A0B97
:1043E0000C0D0E0F10100000000000000000010274
:1043F000030406070809000000000102030400008E
:10440000696E76616C6964006469736C696B6500E0
:104410006C696B6500000000636C6F7365000000E1
:104420006F6B000070616C6D000000006F70656E56
:10443000000000006578697400000000666973740C
:104440000000000064440008000000208400000018
:1044500028010008E844000884000020DC07000070
:1044600044010008000000000000000000000000FF
:104470000000000000000300000000000000000039
:104480000000000000000000313233340000000062
:10449000000000000000000000000000000000001C
:1044A00020440008344400082C4400081844000844
:1044B0001044000808440008244400083C44000854
:1044C00000440008000000000000000000000000A0
:1044D00000000000000000000100000010000000CB
:0844E0000000000000127A0048
:04000005080000ED02
:00000001FF
