:020000040800F2
:10000000E807002089010008D519000857170008E3
:1000100091190008EF030008292E000800000000D5
:100020000000000000000000000000005927000848
:10003000F103000800000000692600089D27000861
:10004000A3010008A3010008A3010008A301000800
:10005000A3010008A3010008A3010008A3010008F0
:10006000A3010008A3010008A3010008A3010008E0
:10007000A3010008A3010008A3010008A3010008D0
:10008000A3010008A3010008A3010008A3010008C0
:10009000A3010008A3010008A3010008A3010008B0
:1000A000A3010008A3010008A3010008A3010008A0
:1000B000A3010008A3010008A3010008A301000890
:1000C000A3010008A3010008A3010008A301000880
:1000D000A30100081D2E0008A3010008A3010008C9
:1000E000A3010008A3010008A301000800F002F822
:1000F00000F03AF80AA090E8000C82448344AAF188
:100100000107DA4501D100F02FF8AFF2090EBAE885
:100110000F0013F0010F18BFFB1A43F0010318473B
:100120001035000030350000103A24BF78C878C17F
:10013000FAD8520724BF30C830C144BF04680C60ED
:10014000704700000023002400250026103A28BF35
:1001500078C1FBD8520728BF30C148BF0B60704739
:100160001FB51FBD10B510BD00F058F81146FFF7C0
:10017000F7FF02F06BFE00F076F803B4FFF7F2FF32
:1001800003BC00F07DF8000009488047094800479B
:10019000FEE7FEE7FEE7FEE7FEE7FEE7FEE7FEE737
:1001A000FEE7FEE704480549054A064B7047000094
:1001B000FF270008ED000008E8010020E807002004
:1001C000E8030020E80300204FF0000200B51346CA
:1001D00094469646203922BFA0E80C50A0E80C5067
:1001E000B1F12001BFF4F7AF090728BFA0E80C5018
:1001F00048BF0CC05DF804EB890028BF40F8042B11
:1002000008BF704748BF20F8022B11F0804F18BF7D
:1002100000F8012B7047704770477047754600F033
:100220002BF8AE4605006946534620F00700854688
:1002300018B020B5FFF7B6FFBDE820404FF000062C
:100240004FF000074FF000084FF0000B21F00701BE
:10025000AC46ACE8C009ACE8C009ACE8C009ACE801
:10026000C0098D46704710B50446AFF300802046A4
:10027000BDE81040FFF781BF0048704784010020AF
:1002800001491820ABBEFEE72600020070470000BF
:100290002DE9F041374C0646A078012558B136A12A
:1002A000304600F093F820B935A1304600F08EF8C2
:1002B00008B1002042E0A07848B1A078022826D1F9
:1002C00031A1304600F082F8002841D13BE030A156
:1002D000304600F07BF848B92FA1304600F076F8A0
:1002E00020B92FA1304600F071F8C8B1E7782CA1F1
:1002F000304600F06BF860B1E0780EE0012000E0DD
:100300000020E070E078874201D027716571BDE878
:10031000F0811FA1304600F059F80028F0D1EDE738
:1003200021A1304600F052F828B920A1304600F053
:100330004DF80028EBD0E07818B10220A070A5712C
:10034000E5E70120FAE71BA1304600F03FF808B1CD
:1003500001200BE019A1304600F038F828B919A1A6
:10036000304600F033F80028D1D00020BDE8F0413D
:1003700002F0F4B900000020657869740000000004
:100380006469736C696B65006F70656E00000000D6
:100390006C65667400000000726967687400000094
:1003A00073776974636800006F6B00006C696B653C
:1003B0000000000070616C6D00000000636C6F73E2
:1003C00065000000666973740000000003E09A4253
:1003D00009D1401C491C02781AB10B78002BF6D1C8
:1003E00001E0087808B10020704701207047FEE75F
:1003F000704772B6FEE710B590F82110002202296E
:1004000005D00421816380F82020012010BD0168FF
:100410000B6823F00E030B6001680B6823F00103E7
:100420000B6090F84030C46B012101FA03F3636064
:1004300080F8211080F82020104610BD10B590F8EB
:1004400021100024022903D00421816301243DE00E
:1004500001680A6822F00E020A6001680A6822F048
:1004600001020A601A4A0168914201D1012121E08A
:10047000174A1432914201D110211BE0144A28324C
:10048000914201D1891515E0114A3C32914201D1C6
:1004900089140FE00E4A5032914202D14FF480315C
:1004A00008E00B4A6432914202D14FF4801101E01E
:1004B0004FF08071064A083A5160012180F82110FE
:1004C000002180F82010416B01B18847204610BD03
:1004D0000800024070B5044600F004F90546601CAF
:1004E00002D004480078044400F0FCF8401BA0420D
:1004F000FAD370BD440000202DE9F84FDFF8B89121
:100500000024A9F1040B23460F2709F1040AABF1DB
:10051000040EC9E00125A5402A40AA427DD1674EBC
:10052000D1F804C0ACEB0608B44532D014DCBCF101
:10053000030F3AD009DCBCF1000F2AD0BCF1010F47
:100540001CD0BCF1020F31D11DE0BCF1110F17D04E
:10055000BCF1120F2AD119E0B8F5881F19D006DCBA
:10056000B8F5803F15D0B8F5801F1FD111E0B8F560
:10057000001F0ED0B8F5041F18D10AE0CB6815E0B3
:10058000CB681B1D12E0CB6808330FE0CB680C333F
:100590000CE08B682BB1012B4FF0080303D04561B1
:1005A00004E0042302E0056100E00023FF2A01D8F3
:1005B000064601E000F104064FEA840501D9A5F1E1
:1005C0002005D6F8008007FA05FC28EA0C0803FA93
:1005D00005F548EA0508C6F800804D68ED0062D5CB
:1005E000374DAE6946F00106AE61AD6924F00306F1
:1005F00005F001050095334D06EB050CDCF80850BD
:10060000A607360F07FA06F825EA0805DFF8B880CE
:10061000404503D14FF0000817E044E0DFF8AC801C
:10062000404502D14FF001080FE0DFF8A4804045BB
:1006300002D14FF0020808E0DFF89880404502D16F
:100640004FF0030801E04FF0040808FA06F848EA02
:100650000508CCF808804D68D9F80060ED024D46D9
:1006600001D5164300E096432E604D68DAF800602D
:10067000AD02554601D5164300E096432E604D6805
:10068000DBF80060AD035D4601D5164300E09643FC
:100690002E604D68DEF80060ED03754601D5164307
:1006A00000E096432E60641C0D682A46E5407FF406
:1006B00031AFBDE8F88F00000804014000001110C0
:1006C000001002400000014000080140000C014001
:1006D00000100140001401400AB101617047090493
:1006E000FBE70000014880687047000044000020DC
:1006F00002488168027811448160704744000020FC
:10070000074810B5016841F010010160032000F0B6
:1007100075F80F2000F006F800F024F8002010BD56
:100720000020024070B50D4D04464FF47A712878D0
:10073000B1FBF0F00A490968B1FBF0F000F017FCDA
:1007400048B9102C07D200222146501E00F036F87E
:1007500000206C6070BD012070BD000044000020CE
:10076000500000200C4808B5816941F00101816109
:10077000816901F001010091C16941F08051C161BD
:10078000C06900F0805000900448416821F0E061A9
:1007900041F00071416008BD0010024000000140BE
:1007A000002809DB00F01F02012191404009800070
:1007B00000F1E020C0F8001170470000F0B40E4BCB
:1007C0001B680C46C3F30223C3F10705042D00D9AF
:1007D0000425191D072901D2002300E0DB1E012694
:1007E00006FA05F1491E214099409E40761E1640AA
:1007F0003143F0BC02F019BB0CED00E0064900F0FB
:10080000070208684FF6FF03184040EA0220034A37
:1008100010430860704700000CED00E00000FA058E
:100820002DE9F0470F46050061D0434E306800F0D7
:100830000700B84209D2306820F007003843306022
:10084000306800F00700B84251D128683B4C81075E
:1008500012D5400703D5606840F4E06060602878F6
:10086000000703D5606840F4605060606068A96864
:1008700020F0F000084360602878C00728D068683E
:10088000012810D02168022810D0890700292EDA0B
:10089000616821F0030101436160FFF723FF804697
:1008A00041F288390DE021688903EFE78901EDE71E
:1008B000FFF718FFA0EB0801494502D90320BDE866
:1008C000F0876068696800F00C00B0EB810FEFD131
:1008D000306800F00700B8420BD9306820F00700FC
:1008E00038433060306800F00700B84201D0012082
:1008F000E5E72878400705D56068E96820F4E060FE
:10090000084360602878000706D56068296920F4EC
:10091000605040EAC100606000F038F86168084A41
:10092000C1F30311515CC8400649086006480068DD
:10093000FFF7F8FE0020C2E700200240001002404E
:10094000C235000850000020480000200448054936
:1009500000684968044AC1F30221515CC8407047ED
:100960005000002000100240D2350008044805491C
:1009700000684968044AC1F3C221515CC84070470D
:100980005000002000100240D23500080E4A516885
:100990000E4801F00C03042B11D0082B0FD10C488A
:1009A000C1F38343C903C05C0AD55168084AC1F347
:1009B0004041921E515C054A5043B0FBF1F0704734
:1009C00004494843704700000010024000127A00BA
:1009D000B235000800093D002DE9F84F040070D041
:1009E0002078C04DC00749D06868C0F38100012855
:1009F00007D06868C0F38100022809D16868C00385
:100A000006D52868800339D560680028E7D035E02E
:100A10006068B0F5803F0BD010B1B0F5A02F11D0B9
:100A2000286820F480302860286820F4802002E0C4
:100A3000286840F480302860606890B1FFF752FE6B
:100A400006460AE0286840F480202860F0E700BFEE
:100A5000FFF748FE801B642873D828688003F7D509
:100A60000CE0FFF73FFE064605E000BFFFF73AFE49
:100A7000801B6428F0D828688003F7D420789A4E29
:100A800080074FF001094FF0000839D5686810F071
:100A90000C0F07D06868C0F38100022809D168688C
:100AA000C00306D42868800714D52069012808D11E
:100AB00010E02069B0B1C6F80090FFF713FE0746BA
:100AC00005E00AE1FFF70EFEC01B0228C4D8286823
:100AD0008007F7D52868616920F0F80040EAC10076
:100AE00028600DE0C6F80080FFF7FCFD074604E033
:100AF000FFF7F8FDC01B022823D828688007F7D429
:100B0000207800072CD57948A169D9B1C0F80090A8
:100B1000FFF7E8FD074604E0FFF7E4FDC01B0228ED
:100B20000FD8686A8007F7D571484FF4FA5100680A
:100B3000B0FBF1F0009000BF0098411E0091FAD286
:100B40000EE080E0C0F80080FFF7CCFD074604E02F
:100B5000FFF7C8FDC01B022875D8686A8007F7D464
:100B60002078400760D5E8690027C00008D4E8690C
:100B700040F08050E861E869012700F08050009063
:100B80005C480168C90513D40168834641F480714B
:100B90000160FFF7A7FD824606E000BFFFF7A2FD58
:100BA000A0EB0A0064284ED8DBF80000C005F5D59C
:100BB000E06801280AD008B1052813D0286A20F07F
:100BC00001002862286A20F0040002E0286A40F050
:100BD00001002862E06841F2883B98B1FFF782FD8E
:100BE00082460BE0286A40F004002862EEE700BF6E
:100BF000FFF778FDA0EB0A0159455AD8286A80070B
:100C0000F6D50CE0FFF76EFD824605E0FFF76AFDC2
:100C1000A0EB0A0159454CD8286A8007F6D41FB1C9
:100C2000E86920F08050E861E06988B36968C1F341
:100C30008101022944D00228C6F8608004D0FFF761
:100C400051FD044638E034E0FFF74CFD074604E070
:100C5000FFF748FDC01B02282BD828688001F7D475
:100C6000206AB0F5803F05D16868A16820F40030A3
:100C700008436860D4E908010843696821F47411E5
:100C800008436860C6F86090FFF72CFD044606E054
:100C900025E000BFFFF726FD001B022809D82868C1
:100CA0008001F7D51BE000BFFFF71CFD001B0228E9
:100CB00002D90320BDE8F88F28688001F4D40EE043
:100CC0000128F7D06868226A00F48031914204D18B
:100CD000616A00F47010884201D00120EAE7002028
:100CE000E8E7000000100240000042428004424257
:100CF000500000200070004070B5040009D0606A08
:100D0000002540B125616561A56294F8510040B1AC
:100D10000CE0012070BD6068B0F5827FF4D0E56121
:100D2000F2E784F85050204600F040F8022084F8A2
:100D300051002068016821F040010160A0882189EC
:100D400000F4827001F404410843A18901F40061B8
:100D50000843217C01F002010843217D01F00101DB
:100D60000843218B01F400710843217F01F0380111
:100D7000084394F8201001F080010843218D01F40C
:100D80000051084321680860A069042101EA10406D
:100D9000216848602068C16921F40061C16165650E
:100DA000012084F85100002070BD000000B585B01E
:100DB0000021009101910291039100680F4988423E
:100DC0001AD10F48816941F480518161816901F430
:100DD00080510491816941F0040181618069694613
:100DE00000F004000490A020009002200190032055
:100DF00003900448FFF780FB05B000BD00300140C0
:100E000000100240000801402DE9F84F98461646B0
:100E10008A460446FFF766FC814694F85100012893
:100E20001ED1BAF1000F73D0002E71D094F850008B
:100E3000012815D0012784F85070032084F8510050
:100E400000256565C4F830A0A686E686A563A5875B
:100E5000E58765642564A068B0F5004F03D00CE019
:100E60000220BDE8F88F2068016821F04001016090
:100E70002068016841F480410160206801684906EA
:100E800003D4016841F040010160E068B0F5006FF3
:100E9000606803D048B3012E27D047E008B1012E87
:100EA0001FD1206B21680088C86006E02068816837
:100EB000890709D5216B0988C160206B801C2063DC
:100EC000E08E401EE0860CE0FFF70CFCA0EB090171
:100ED000414503D3B8F1FF3F03D035E0B8F1000F2F
:100EE00032D0E08E0028E1D123E0206B2168007829
:100EF000087306E02068816889070AD5216B0978A4
:100F00000173206B401C2063E08E401EE0860DE0E4
:100F10002BE0FFF7E7FBA0EB0901414503D3B8F154
:100F2000FF3F03D010E0B8F1000F0DD0E08E002895
:100F3000E0D14A464146204601F097FB08B1202007
:100F40006065A06830B109E084F8517084F85050B1
:100F5000032086E72068C1688068009084F851709B
:100F600004F8505F60680028F3D0012079E710B5DD
:100F7000401EB0F1807F01D3012010BD4FF0E0246E
:100F800060610F21601701F050FF0020A061072071
:100F90002061002010BD000070B590F83C20012AAF
:100FA00026D0012480F83C40022280F83D200368CE
:100FB0005A689D6822F070060A6832435A600D4BE9
:100FC00002689A4208D0B2F1804F05D00A4B9A428B
:100FD00002D00A4B9A4204D1496825F08003194394
:100FE000916080F83D40002180F83C10084670BDBB
:100FF000022070BD002C01400004004000080040A9
:1010000010B5040003D094F83D0010B107E00120B2
:1010100010BD002084F83C00204600F01FF802209C
:1010200084F83D00211D206801F0EAFB012084F8CE
:10103000460084F83E0084F83F0084F8400084F8BD
:10104000410084F8420084F8430084F8440084F8A6
:10105000450084F83D00002010BD000008B501687F
:101060000B48B1F1804F0BD00A4A914207D1C169B8
:1010700041F00401C161C06900F00400009008BDA6
:10108000C16941F00101C161C06900F00100F5E7EB
:10109000001002400008004070B5044690F83C0083
:1010A0000025012817D0012684F83C60022084F82E
:1010B0003D002068826822F0770222F47F4282603D
:1010C0000868502838D00DDC20284FD005DC90B3BC
:1010D000102811D14AE0022070BD302846D04028A7
:1010E0000AD13BE060282FD070280DD0B0F5805F8A
:1010F00003D0B0F5005F12D0012584F83D600020D8
:1011000084F83C00284670BDCB68D1E901212068F5
:1011100001F0BFFB2068816841F0770109E0CB68EE
:10112000D1E90121206801F0B4FB2068816841F415
:1011300080418160E1E719E0CA684968206801F0F0
:101140005DFC5021206806E0CA684968206801F00B
:1011500066FC6021206801F0A6FBCEE7CA684968FA
:10116000206801F04BFC40212068F4E7226801462A
:101170001046F0E700B585B0002100910191029181
:101180000391026814480221B2F1804F14D0134B2E
:101190009A420FD1826942F008028261806903910C
:1011A00000F0080004904020CDE9000169460C4899
:1011B000FFF7A2F905B000BD826942F00402826126
:1011C0008069039100F0040004900120CDE9000142
:1011D00069460448ECE700000010024000080040A7
:1011E000000C01400008014070B5044690F83C0036
:1011F00000260D4601280FD0012084F83C006AB17A
:10120000042A1DD0082A2FD00C2A3FD00126002006
:1012100084F83C00304670BD022070BD206801F0AB
:101220004BFB2068816941F0080181612068816978
:1012300021F004018161206881692A69114311E06C
:10124000206801F061FB2068816941F400618161DF
:101250002068816921F480618161206881692A693F
:1012600041EA02218161D2E7206801F079FB206820
:10127000C16941F00801C1612068C16921F0040120
:10128000C1612068C1692A69114311E0206801F039
:1012900093FB2068C16941F40061C1612068C169A4
:1012A00021F48061C1612068C1692A6941EA022193
:1012B000C161ACE710B5040003D094F83D0010B153
:1012C00007E0012010BD002084F83C00204600F01B
:1012D0001EF8022084F83D00211D206801F090FADC
:1012E000012084F8460084F83E0084F83F0084F82A
:1012F000400084F8410084F8420084F8430084F8F8
:10130000440084F8450084F83D00002010BD70477B
:1013100010B50446022249B104290ED0082913D081
:1013200094F84100012816D0012010BD94F83E0029
:101330000128F9D184F83E200FE094F83F000128FD
:10134000F2D184F83F2008E094F840000128EBD166
:1013500084F8402001E084F841200122206801F057
:101360008BFA0F492068884203D1426C42F4004254
:1013700042642068884208D0B0F1804F05D0094906
:10138000884202D00849884204D1816801F00701EF
:10139000062903D0016841F001010160002010BD61
:1013A000002C01400004004000080040704700008D
:1013B00000680349884201D101F01EBC704700005B
:1013C00000380140F8B5016804460868CA684B69EE
:1013D00010F00F0F4FF0000559D003F0010602F492
:1013E0009077374365D0C10705D0D10503D5616C2F
:1013F00041F001016164410705D5D90703D0616C53
:1014000041F002016164810705D5D90703D0616C01
:1014100041F004016164010707D502F02001314366
:1014200003D0616C41F008016164616C00293AD01D
:10143000800604D5900602D5204601F016FC2068EF
:101440004069616CC0F38010090700D460B3204686
:1014500001F0E4FB20684069400621D52068143083
:1014600050E8001F21F0400140E80012002AF5D1A9
:10147000E06BA8B16D494163E06BFEF7DFFF002828
:1014800011D0E06B416B01B0BDE8F0400847830626
:101490000FD593060DD52046BDE8F84001F0E5BB19
:1014A0002046FFF785FFF8BD2046FFF781FF656402
:1014B000F8BD266B2023012E7CD1C6067AD5D60630
:1014C00078D508684868009048694FF002064006E1
:1014D00040D5E16B086840680004000CE8D0A28D9C
:1014E0008242E5D9E085886920282DD020680C301B
:1014F00050E8001F21F4807140E80012002AF5D165
:101500002068143050E8001F21F0010140E800126B
:10151000002AF5D12068143050E8001F21F0400166
:1015200040E80012002AF5D184F842302563206893
:101530000C3050E8001F21F0100140E80012002A92
:10154000F5D1E06BFEF757FF6663A08DE18D401A81
:1015500081B22AE0A08DE18D401A81B2E08D002891
:10156000A6D00029A4D022680C3252E8000F20F443
:10157000907042E80007002FF5D12068143050E841
:10158000002F22F0010240E80027002FF5D184F857
:101590004230256320680C3050E8002F22F0100202
:1015A00040E80023002BF5D166632046FFF7FEFEDE
:1015B000F8BDFFE705062BD5150629D594F841009F
:1015C0002128F5D1A068B0F5805F01D12069B0B1C4
:1015D000206A411C2162216800784860E08C401E2E
:1015E0000004000CE084E3D12068C16821F0800190
:1015F000C1602068C16841F04001C160D8E7206A3D
:101600000088C0F308004860206A801C2062E5E77B
:101610004006CDD55006CBD5CA68204622F0400200
:10162000CA6084F8413000F095F8C1E70D2C00083D
:1016300070B5040004D094F84100002510B106E014
:10164000012070BD84F84050204600F023F824208B
:1016500084F841002068C16821F40051C16020462F
:1016600001F064FB2068016921F490410161206868
:10167000416921F02A0141612068C16841F40051AB
:10168000C1606564202084F8410084F842006563ED
:10169000002070BD30B585B0002400940194029400
:1016A00003940068184988422CD11848816941F494
:1016B00080418161816901F480410491816941F037
:1016C000040181618069124D00F0040004904FF420
:1016D0000070009002200190032003906946284684
:1016E000FEF70AFF2815CDE9000469462846029452
:1016F000FEF702FF002211462520FFF75FF82520A4
:10170000FFF74EF805B030BD003801400010024030
:101710000008014090F84230202B01D00220704791
:1017200021B11AB10023036301F05CBB01207047B3
:1017300010B500680549884207D10548807A01F054
:1017400081F9BDE8104001F057BA10BD00380140E2
:10175000000000207047FEE730B585B000241C482B
:101760000094019402940394816941F02001816105
:10177000816901F020010491816941F004018161D6
:10178000816901F004010491816941F008018161DE
:101790008069104D00F008000490002247F201011A
:1017A0002846FEF799FF012240F202412846FEF743
:1017B00093FF47F2034000900120CDE9010402208D
:1017C000039069462846FEF797FE05B030BD00003D
:1017D00000100240000C0140104810B50E49016095
:1017E0004FF48271416000218160C1604FF400724A
:1017F0000161C0E905121022C0E90721416281623E
:101800000A21C162FFF778FA002803D0BDE8104032
:10181000FEF7EFBD10BD0000003001405400002075
:1018200010B58EB000240794089409940A940B9480
:101830001C2168460C94FEF7C7FC1E484FF08041FF
:1018400001604721C0E9011440F2E731C0E9031407
:1018500080218161FFF7D4FB08B1FEF7CAFD4FF488
:101860008050079007A91348FFF716FC08B1FEF750
:10187000C0FD1048FFF71EFD08B1FEF7BAFD0B943E
:101880000BA90C480C94FFF787FB08B1FEF7B1FDDC
:101890006020CDE9000402940022694605480494C2
:1018A000FFF7A2FC08B1FEF7A4FD0248FFF762FCB7
:1018B0000EB010BDAC00002010B58EB0002407940F
:1018C000089409940A940B941C2168460C94FEF722
:1018D0007BFC20481E4901604721C0E9011444F601
:1018E0001F61C0E9031480218161FFF789FB08B102
:1018F000FEF77FFD4FF48050079007A91548FFF7CA
:10190000CBFB08B1FEF775FD1248FFF7D3FC08B119
:10191000FEF76FFD0B940BA90E480C94FFF73CFBF0
:1019200008B1FEF766FD6020009040F2DC50CDE982
:1019300001040022694607480494FFF755FC08B1EA
:10194000FEF757FD0348FFF715FC0EB010BD000071
:1019500000080040F40000200C4810B50A4901605E
:101960004FF4E1314160002181600C22C160C0E987
:1019700004128161C161FFF75BFE002803D0BDE85E
:101980001040FEF736BD10BD003801403C0100207C
:10199000FEE700000D49B0F57A7F096803D340F2F5
:1019A000E73048630BE0486350B1B0F5967F01D84B
:1019B000012005E0B0F5167F01D8022000E00320E9
:1019C000034908700120487070470000AC000020F7
:1019D00000000020FEE72DE9F0410D460746A84231
:1019E00004D1BDE8F041084600F0CFBC012D23D062
:1019F000012600246000704341B2384600F0B8F977
:101A00001020FEF767FD641CE4B2032CF2D9032416
:101A100076426000704341B2284600F0A9F91020D8
:101A2000FEF758FD641E14F0FF04F2D12846BDE80D
:101A3000F041002100F09CB94FF0FF36D9E72DE9C5
:101A4000FC470D46DDE90A181C461646074611B14B
:101A50004FF6E07001E040F2FF705FEA080202D04A
:101A60004FF4FC6201E04FF62052914609B1022189
:101A700000E00121CDE9000123B232B229B238B22F
:101A800000F086F85FEA0803A4F1080205F10401FA
:101A900007F104004FF6FF7A05EB54081FD040F61B
:101AA0004103009393B2A6F10C0292B289B280B2C4
:101AB00000F061FA0320B6FBF0F20A3CA3B26D1D00
:101AC00007EB5604A9B2A0B2CDF8009000F053FA8B
:101AD000241D1FFA88F1A0B2CDF800A010E093B247
:101AE000A6F1080292B289B280B2CDF8009000F05F
:101AF00042FAB8190B381FFA88F180B2CDF800A06D
:101B000003231A4600F037FABDE8FC872DE9FC47AD
:101B10001F460AB1122400E00E240122CDE9007212
:101B200063000E46A1EB04080546A0EB04091A4623
:101B30000FFA88F10FFA89F000F02AF808F1040191
:101B4000A81E09B2E31F052200B2009700F050FA68
:101B5000B01E01B2E81C0523621F00B2009700F01E
:101B600047FA09F10500F11C00B20523A21F09B2D2
:101B7000009700F03DFA4FF6FF700723F61EED1EAA
:101B800000901A4631B228B200F032FABDE8FC8764
:101B90002DE9F8431E46DDE9085491460F4680467C
:101BA0002346009500F024FAB819001B01B2234621
:101BB0004A464046009500F01BFA33462246394615
:101BC0004046009500F014FA08EB0900001B00B233
:101BD000334622463946009500F00AFABDE8F883FC
:101BE0002DE9F04389B0984600F11003DDF84090EC
:101BF000802B2DD801F11003802B29D8164B03EB35
:101C0000421710231A4600F093FB002480266D46ED
:101C10000020620002EBD00100F00703795C26FA95
:101C200003F3194201D0414600E049460B0A05F88A
:101C3000103005EB4003401CC0B259701028E9D3A6
:101C40002021684600F0ECFC641CE4B2102CDFD3C9
:101C500009B0BDE8F0830000103400082DE9F0471A
:101C60008CB0994600F11803DDF850A0802B3CD8C9
:101C700001F11803802B38D81D4B03EB42171823B2
:101C80001A4600F055FB002418254FF080086E46D8
:101C90002001B0FBF5F001060020CB0D424601010A
:101CA000B1FBF5F1C9B203EBD10C01F0070117F854
:101CB0000CC022FA01F11CEA010F01D0494600E0F4
:101CC00051464FEA112C06F810C006EB400C401CA0
:101CD000C0B28CF801101828E1D33021684600F01A
:101CE0009FFC641CE4B2182CD2D30CB0BDE8F08782
:101CF000103400082DE9F0438DB09846DDF850907F
:101D000080282FD280292DD2184B02EBC20203EB80
:101D1000C20718231A4600F00BFB002480266D46EC
:101D2000002004EB440200BF02EBD00100F00703E7
:101D3000795C26FA03F3194201D0414600E0494696
:101D40000B0A05F8103005EB4003401CC0B2597077
:101D50001828E9D33021684600F062FC641CE4B224
:101D6000182CDDD30DB0BDE8F0830000902F0008E3
:101D70002DE9FE4F0C46A8B30025002652238022F1
:101D80001D213046009600F0F6F84FF6E070CDE9E0
:101D900000060823654A0421002000F0C9F81F202E
:101DA0000090022370221821082000F0E4F840F28D
:101DB000FF70009001235C221B21122000F0DBF851
:101DC0009DB14A2004F10409382604F14A07029023
:101DD0004FF0200A4FF0270830244FF03C0B41F61B
:101DE000E30012E0FFE70125C7E73C2004F1060904
:101DF000302604F1440702904FF0270A4FF02008E4
:101E000038244FF04A0B40F64100009032465146CC
:101E10004846029B00F0ECF81DB102204FF6E0713D
:101E200002E0012048F21041CDE90010324651464F
:101E30004846029BFFF7ACFE15B14FF6E07301E098
:101E400040F2FF7306EBD67209EB62000AF119014A
:101E500080B22A46FFF75AFE203E25B141F6E30044
:101E60004FF6FF7102E040F641000101CDE900109C
:101E7000029906EBD6720AEB0100183881B209EB21
:101E800062002A4A80B202230C3A00F051F8EDB306
:101E900040F6410000905B4622464146384600F03D
:101EA000A7F8A5B3012048F21041CDE900105B4628
:101EB000224641463846FFF76BFEA4F11C00002184
:101EC0006DB30022CDE9002100EBD07007EB60007C
:101ED00008F10B0180B222231C22FFF7B0FD203C49
:101EE000FDB140F641000101CDE9001008EB0B0007
:101EF000183881B204EBD4700C4A07EB600080B252
:101F000002230A3A00F014F8BDE8FE8F00E002E078
:101F100041F6E300BEE702204FF6E071C5E701227B
:101F2000D0E741F6E3004FF6FF71DDE7882F0008A8
:101F30002DE9F84F1D46DDE90A9816468A46074600
:101F400000240BE0CDF8008007EB0410325D80B276
:101F50004B465146FFF744FE641CE4B2AC42F1D359
:101F6000BDE8F88F08B58023002100901A46084686
:101F700000F001F808BDF0B5A1B01D46269E14463C
:101F8000802833D2802931D2002C2FD0002D2DD0A3
:101F90000219802A02D9C0F1800294B24A19802A1B
:101FA00002D9C1F1800295B20022370A6B46F6B21F
:101FB0009F5403EB020C921C92B28CF80160802AB1
:101FC000F6D32B46224600F0B3F96C434FF6FF766A
:101FD0000AE0402C01D9402500E0A5B206EA4501FF
:101FE000684600F01DFB641B002CF2D121B0F0BD4F
:101FF00038B5002A049C29DD002B27DD002802DAF1
:10200000104402B20020002905DA19440BB2002165
:1020100080281BDA03E0802818DA802916DA002AE3
:1020200014DD002B12DD8518802D02DDC0F1800249
:1020300012B2CD18802D02DDC1F180031BB29BB21C
:1020400092B289B280B20094FFF795FF38BD0000CC
:1020500010B5894C002202212046FEF73DFB1420DA
:10206000FEF738FA012202212046FEF735FB7820E0
:10207000FEF730FA012000F093FA7820FEF72AFAF2
:10208000112000F08DFA7820FEF724FAB12000F03C
:1020900087FA012000F0A4FA2C2000F0A1FA2D20EC
:1020A00000F09EFAB22000F07BFA012000F098FACE
:1020B0002C2000F095FA2D2000F092FAB32000F0C9
:1020C0006FFA012000F08CFA2C2000F089FA2D2004
:1020D00000F086FA012000F083FA2C2000F080FA4C
:1020E0002D2000F07DFAB42000F05AFA072000F00D
:1020F00077FAC02000F054FAA22000F071FA022012
:1021000000F06EFA842000F06BFAC12000F048FA6B
:10211000C52000F065FAC22000F042FA0A2000F063
:102120005FFA002000F05CFAC32000F039FA8A2040
:1021300000F056FA2A2000F053FAC42000F030FADA
:102140008A2000F04DFAEE2000F04AFAC52000F097
:1021500027FA0E2000F044FA362000F021FAC820B9
:1021600000F03EFAE02000F01BFA0F2000F038FAF1
:102170001A2000F035FA0F2000F032FA182000F093
:102180002FFA2F2000F02CFA282000F029FA202026
:1021900000F026FA222000F023FA1F2000F020FA97
:1021A0001B2000F01DFA232000F01AFA372000F05F
:1021B00017FA002000F014FA072000F011FA0220AC
:1021C00000F00EFA102000F00BFAE12000F0E8F920
:1021D0000F2000F005FA1B2000F002FA0F2000F09B
:1021E000FFF9172000F0FCF9332000F0F9F92C205A
:1021F00000F0F6F9292000F0F3F92E2000F0F0F9B4
:10220000302000F0EDF9302000F0EAF9392000F03C
:10221000E7F93F2000F0E4F9002000F0E1F90720A1
:1022200000F0DEF9032000F0DBF9102000F0D8F90F
:10223000F02000F0B5F9012000F0D2F9F62000F00E
:10224000AFF9002000F0CCF93A2000F0A9F9052000
:1022500000F0C6F9132000F0A3F90A20FEF73AF9BE
:10226000292000F09DF97820FEF734F9BDE81040F0
:102270000020FFF777BE0000000C01402DE9FC5F55
:1022800000244FF6E07527466E114FF0010840F626
:1022900041094FF0060A4FF4FC6B0020FFF762FE85
:1022A000CDE900570423214A0C212020FFF740FEEE
:1022B0001E4A20210423121D0846CDE90067FFF7BE
:1022C00037FEE00701D02B4600E0334604F0010260
:1022D0004E212A20FFF71AFC022C01D9012100E02F
:1022E0000021CDE9008128231C223A214E20FFF74E
:1022F000A6FB0523582271211420CDF80090FFF78A
:102300003AFE5820641C6043B0FBFAF205237121A9
:102310001420CDF800B0FFF72EFE5020FEF7DAF8BB
:10232000E4B2062CB9D3BDE8FC9F0000802F000862
:10233000F8B58718851CCE18CC1C2A20B61C7F1C2B
:1023400000F02EF9280A8DF800008DF80150380AA7
:102350008DF802008DF803700421684600F060F9E2
:102360002B2000F01DF9200A8DF800008DF80140A7
:10237000300A8DF802008DF803600421684600F0F1
:102380004FF92C2000F00CF9F8BD10B504460020E0
:10239000FFF7E8FD2046BDE810400021FFF7E8BC4C
:1023A000F8B505460020FFF7DDFD00244FF6E07686
:1023B00033462246062110200094FFF79BFC33464B
:1023C0000122062128200094FFF794FC33460222C4
:1023D000062140200094FFF78DFC3346032206219E
:1023E00058200094FFF786FC334604222221102057
:1023F0000094FFF77FFC3346052222212820009419
:10240000FFF778FC33460622222140200094FFF794
:1024100071FC33460722222158200094FFF76AFC02
:102420001F2000900223702240210820FFF7A3FD07
:1024300076113346082244211C200094FFF75AFCF1
:1024400033460922442134200094FFF753FC2846E8
:10245000BDE8F84000F04EB8F8B505460020FFF79B
:1024600081FD00244FF6E07633460A220621022041
:102470000094FFF7F3FB334609220621162000944F
:10248000FFF7ECFB3346042206212A200094FFF7D5
:1024900031FC3346052206213F200094FFF72AFC39
:1024A00006223346114654200094FFF723FC33469E
:1024B0000722062168200094FFF71CFC1F200090D3
:1024C0000223702224210820FFF755FD76113346A0
:1024D00008222A2128200094FFF70CFC3346092209
:1024E0002A2140200094FFF705FC2846BDE8F8406B
:1024F00000F02BB8F8B50A250B244FF4FC66012830
:102500001CD002281CD003281DD04FF47846002789
:1025100020238022602138460097FFF72CFD3346A8
:102520002A46622128200097FFF7E4FB3346224623
:10253000622140200097FFF7DDFBF8BD0C2500E08D
:102540000D250F24E3E70E25FBE72DE9FC410446AA
:1025500001281FD04FF478450C2700263A2380220B
:10256000462130460096FFF706FD012C16D00020CC
:102570000121CDE900101C23242246212E20FFF743
:102580005EFA2B463A466A2138200096FFF728FB70
:10259000BDE8FC814FF4FC650B27DEE70120E7E78F
:1025A00031B50D4D4FF48064002221462846FEF7D8
:1025B00093F8002201212846FEF78EF84FF0FF33F2
:1025C000012269460548FEF71FFC012221462846E4
:1025D000FEF782F838BD0000000C014054000020D6
:1025E00031B50D4D4FF48064002221462846FEF798
:1025F00073F8012211462846FEF76EF84FF0FF33BC
:10260000012269460548FEF7FFFB012221462846C4
:10261000FEF762F838BD0000000C014054000020B5
:102620002DE9F0410E4F0C4605464FF4806600221E
:1026300031463846FEF750F8012211463846FEF77B
:102640004BF84FF0FF33224629460648FEF7DCFBE5
:1026500031463846BDE8F0410122FEF73DB80000A2
:10266000000C0140540000207047F8B515460E4696
:102670000B46009204460122022100F011F840B9F5
:102680003346002280212046009500F009F80028FA
:1026900004D0606D40F0200060650320F8BD0000AC
:1026A0002DE9F8431E46914688460446089DFEF7EC
:1026B00019F8401B351AFEF715F80746254800683B
:1026C000C0F3CB30684338E0701C37D0FEF70AF80F
:1026D000C01BA84203D215B1009860B32CE020685B
:1026E000416821F0E00141606068B0F5827F0BD164
:1026F000A068B0F5004F02D0B0F5806F04D120681B
:10270000016821F040010160A06AB0F5005F09D1C5
:102710002068016821F4005101602068016841F4DB
:1027200000510160012084F85100002084F850001D
:102730000320BDE8F8830025401E009020688168D2
:1027400038EA010004D000214945BDD10020F0E75E
:102750000121F9E7500000207047000010B5002863
:1027600003D000BF4FF4FA6001E04FF47A700949DA
:102770000968486302D04FF0010001E04FF000000B
:10278000054CE071FDF7AEFF00F59670E0600120AA
:10279000207210BDF400002000000020FDF7A8BF4B
:1027A00030B58FB028216846FDF70EFD14210AA828
:1027B000FDF70AFD01210804CDE900100024029470
:1027C00002250491CDE907504FF4E01009906846C6
:1027D000FEF702F908B172B6FEE70F20CDE90A054F
:1027E0004FF48060CDE90C4002210AA80E94FEF758
:1027F00017F8002801D072B6FEE70FB030BD704761
:10280000F0B50268194B1A4C1A4D4FF080479842A8
:1028100005D0B84203D0A04201D0A84203D122F093
:1028200070064A683243984205D0B84203D0A042AD
:1028300001D0A84203D122F44074CA6822434C69F3
:1028400022F08002224302608A68C2620A688262C1
:10285000984201D109690163012141610169C907F8
:1028600003D0016921F001010161F0BD002C01409C
:10287000000400400008004010B501F01F030121D2
:10288000046A99408C430462016A9A4011430162D0
:1028900010BD10B5846842EA032224F47F440A4341
:1028A0002243826010BD826822F070020A4342F027
:1028B000070181607047000030B5036A026A22F0A8
:1028C000010202624268846924F073050C682C439B
:1028D00023F002058B682B430A4DA8420BD123F04D
:1028E0000805CB6822F440722B434D6923F00403A2
:1028F00015438A692A4342608461496841630362DF
:1029000030BD0000002C014030B5026A036A23F09C
:1029100010030362436884690D6824F4E64444EAC2
:1029200005248D6822F0200242EA05120B4DA842D0
:102930000ED1CD6822F0800242EA05124D6923F4DF
:10294000406343EA85038D6922F0400243EA850330
:102950004360846149688163026230BD002C01409C
:1029600030B5036A026A22F4807202624268C46966
:1029700023F4007324F073050C682C438D6843EA3C
:1029800005230C4DA8420ED1CD6823F4006343EA21
:1029900005234D6922F4405242EA05128D6923F461
:1029A000806342EA05124260C4614968C163036200
:1029B00030BD0000002C014030B5046A026A22F4E8
:1029C000805202624268C3690D6823F4E64343EA19
:1029D00005238D6824F4005444EA0534064DA842CA
:1029E00004D14D6922F4804242EA85124260C361FB
:1029F00049680164046230BD002C014010B5036ACF
:102A0000046A24F001040462846924F0F00444EAB6
:102A1000021423F00A020A438461026210BD10B559
:102A2000036A046A24F010040462846923F0A0039A
:102A300024F4704444EA023243EA011182610162E3
:102A400010BD00002DE9F041A0F14101192901D884
:102A50002030C0B2524DA0F130010026A5F1100483
:102A600005292DD866722E70A178012917D1332837
:102A700015D830280BD031280BD032280CD0332871
:102A800076D140F2E730BDE8F041FEF783BF002089
:102A9000F9E74FF49670F6E74FF41670F3E7A17874
:102AA000022901D1342809D0A17802296ED1352814
:102AB0006CD10020BDE8F041FFF750BE0120F9E7DE
:102AC0000D2869D00A2867D0202865D0A0F16101BF
:102AD0001A2961D2617A072900D36672617A685433
:102AE000491CC8B260722E542EA12D48FDF76EFC11
:102AF000002831D12DA12A48FDF768FC60BB2DA12B
:102B00002748FDF763FC38BB2BA12548FDF75EFC89
:102B100010BB2BA12248FDF759FCE8B92AA1204897
:102B2000FDF754FCC0B92AA11D48FDF74FFC98B928
:102B300029A11B48FDF74AFC70B929A11848FDF7E7
:102B400045FC48B928A11648FDF740FC20B928A14A
:102B50001348FDF73BFC18B11148FDF799FB1BE04A
:102B6000DFF83CC0637A00210CF1080200200BE082
:102B70000CE000BF52F821703F5C4FB11CF800E040
:102B8000774505D1401CC0B29842F3D3BDE8F0812F
:102B9000491CC9B20B29E9D366722E70F6E7000012
:102BA000100000206C6566740000000072696768A0
:102BB000740000006F6B000065786974000000000D
:102BC0006F70656E00000000636C6F73650000003D
:102BD00073776974636800006C696B6500000000BE
:102BE0006469736C696B650070616C6D0000000056
:102BF0006669737400000000012202490248FEF772
:102C000089BD00000A0000203C01002010B5406A88
:102C10000021C185C184FEF7CBFB10BD01680C31DA
:102C200051E8002F22F4907241E80023002BF5D1E7
:102C30000168143151E8002F22F0010241E800231D
:102C4000002BF5D1016B012909D101680C3151E844
:102C5000002F22F0100241E80023002BF5D12021A3
:102C600080F8421000210163704708B590F84210C7
:102C7000222901D0022008BD82684FF480539A4275
:102C800001D1016921B1816A9A421BD04AB10AE09F
:102C90000268816A5268C2F308020A80816A891C4C
:102CA00008E0026972B10268526802F07F020A709D
:102CB000816A491C8162C18D491E0904090CC185C4
:102CC00003D01BE002685268F1E70168CA6822F08D
:102CD0002002CA600168CA6822F48072CA60016872
:102CE0004A6922F001024A61202180F84210002145
:102CF0004163026B012A03D0FEF71AFD002008BDD4
:102D0000016301680C3151E8002F22F0100241E804
:102D10000023002BF5D101680A68D20602D50A68A3
:102D200049680091818DFEF741FBE7E770B50446E5
:102D300000680169E26821F4405111430161216991
:102D4000A0680843616908432168CA6841F20C63BE
:102D50009A430243CA6020684169A26921F4407124
:102D6000114341611E492068884202D1FDF7FEFDF2
:102D700001E0FDF7EBFD00EBC00101EB0012606824
:102D800064218000B2FBF0F3B3FBF1F36FF018069F
:102D90007343B2FBF0F5B2FBF0F605EB830532238B
:102DA00003EB0515B5FBF1F5B6FBF1F605F0F00503
:102DB00005EB0615B2FBF0F6B2FBF0F0B0FBF1F05C
:102DC0006FF01802504306EB800003EB0010B0FBDD
:102DD000F1F0216800F00F002844886070BD000009
:102DE0000038014081628285C28500214164222130
:102DF00080F84210016921B10168CA6842F480720A
:102E0000CA6001684A6942F001024A610068C1680B
:102E100041F02001C1600020704700000148FEF72A
:102E2000D1BA00003C010020FEE70907090E002886
:102E300004DB00F1E02080F80014704700F00F0080
:102E400000F1E02080F8141D7047000008B5FDF780
:102E500057FCFFF7A5FCFEF77FFCFEF7E1FCFEF751
:102E60007BFDFEF7B9FCFEF727FD00213F48FEF78A
:102E70004FFA00213E48FEF74BFA3E4C0122110367
:102E80002046FDF729FC012251032046FDF724FCD2
:102E900000224FF480412046FDF71EFCFFF7D8F8D2
:102EA000FFF7ECF90020FFF770FA0020FEF772FD43
:102EB0000020FFF753FC304C4FF0000984F80190DC
:102EC00084F8089084F8059084F80690FFF794FE43
:102ED000207A30B1FDF706FCE168401A01D40125E3
:102EE00000E00025607928B9A07918B9607808B9A0
:102EF000002DEDD072B6A67894F803A02079217841
:102F0000009194F807B0627994F806806778494692
:102F100084F8059084F8069084F8019005B1217238
:102F200062B612B15146FEF756FDB8F1000F05D05A
:102F300046B1012E0AD05846FFF78EFA6FB1012E26
:102F400008D00AE05046FFF720FAF7E70098FFF7AD
:102F500027FAF3E70098FFF7CDFA002DB8D0022E3C
:102F6000B6D15846FFF7F1FAB2E70000AC000020F6
:102F7000F4000020000C01400000002008090A09AC
:102F80000001020304050607000102030405060709
:102F90000000000000E01FFFF01FFF80001800008D
:102FA00018000018000FFFF01FFFF00018000018B5
:102FB000000018007FFFFC7FFFFC001800001800D5
:102FC00000180000180000380000F80000F00000B1
:102FD00000000000000000000000000606000606D9
:102FE000000606007FBFE03F9F60060660079E6008
:102FF0007F1E60760F60061A6C06707C1E603C189F
:1030000030181FFFE03FFFE000606000E06001C09B
:10301000600780E03F07C038078000000000000024
:103020000000000030000070000070000070003FE1
:10303000FFE03FFFE03870603870603870603FFF3D
:10304000E03FFFE03870603870603870603FFFE04C
:103050003FFFE038700000700C00700C003FFC0077
:103060003FF80000000000000000000400000E0017
:10307000000E1FC00E1FC00E18C07FD8C07FD8C062
:103080000E18C00E18C01F18C01F98C01FD8C03E11
:10309000D8C03E18C06E18C06E30C00E30C00E7062
:1030A000CC0E60EC0EE0FC0E40780000000000004A
:1030B0000000000000007F9FFC61980831980031FB
:1030C0009818319B38319B303199B03199E0319863
:1030D000E03FD8E03FD8F000D9B800DB987EDB189D
:1030E0007EDA0000D80000D80007DFFC078FFC0262
:1030F00000000000000000000000000001000001CE
:10310000800001803FE1803FE180001FF8001FFC4C
:1031100000018C7FE18C7FE18C0E019C0C031C0C68
:10312000C31818C31818631833F7187FF6183C3EF5
:1031300018001C180038F80030F0000000000000F3
:10314000000000000060003FF01FFFC01E70000084
:10315000708000C1C00387800FFE0007FC00007173
:10316000C001C0E00F8FF01FFFF80C181800180006
:103170000718C00E18F01C187838181830F8080016
:1031800070000000000000000000000006000E07B4
:10319000000C03001C7FF8187FFC398600338E007A
:1031A0007F0C007E18600E38700C7FF8187FF83F97
:1031B0008DC03F8DC0380DC0000DC0019DC01F994E
:1031C000CC7E39CC3070FC00E0F80000000000003C
:1031D000000000030000030700030760030370639F
:1031E00003383303103B0300137FFC037FFC03070A
:1031F000000707000F07801F07803B0F80730DC07B
:10320000230CC00318E003387003703803F01C036C
:1032100060080000000000000000000030000070A6
:10322000000070003FFFF87FFFF800E60000C600D6
:1032300001830003C3800771C01E30F87C10383052
:103240000008001800199870199C303988383181AD
:10325000DC3181C861FF8000FF0000000000000039
:103260000000000606000E07000DFFFC0CFFFC1C12
:1032700000001C7FF03C7FF03C60307C7FF06C7F76
:10328000E00DFFFC0DFFFC0D800C0D70640C7FF059
:103290000C03000C03000C03000C03000C1F000CBB
:1032A0000E00000000000000000000000000000010
:1032B0000000180000180000180000180000180096
:1032C000061800061FF0061FF00618000618000674
:1032D0001800061800061800061800061800061840
:1032E000000618007FFFFC7FFFFC000000000000CC
:1032F00000000000000000000000000000000000CE
:1033000000000000007FFFFC7FFFFC7FFFFC00004F
:1033100000000000000000000000000000000000AD
:10332000000000000000000000000000000000009D
:10333000000000000000000000000000000000008D
:10334000000000000000001FFFE01FFFE000000081
:10335000000000000000000000000000000000006D
:1033600000000000000000000000000000087FFFD7
:10337000FC7FFFFC000000000000000000000000D7
:103380000000000000000000001FFFF01FFFF00819
:10339000000000000000000000000000000007FF27
:1033A000C00FFFC007FFC0000000000000000000C9
:1033B0000000000000000000007FFFFC7FFFFC0019
:1033C00000000000000000000000000403000C03E7
:1033D000000C63180C73380C33307F3B707F032074
:1033E0000C03001C7FF81F7FF83F80183D80187D7C
:1033F000BFF86C3FF86C00180C00180C00180C7F1C
:10340000F80C7FF80C00180C0018000000000000F9
:10341000000003FC1F80008000803FFC00800080D3
:103420007FFE00800080008000800380000000009C
:10343000084008407DF808481DC868E8098A3B0E26
:1034400021043FF8030802080C087870000000000F
:10345000018001807FFE60066FF60300070839983F
:1034600063F00CD07158064C1846638001000000D0
:103470003FFC300C3FFC30C030C03FFE30C030C09D
:1034800027FC240C240C67FC440C00000000000006
:1034900018301F3E3448654C01807FFE40021FF00B
:1034A00018101FF018001FF818081FF81800000067
:1034B00001FE7D26112611FE11267D2611FE10200B
:1034C000102013FE1C20602003FE000000000000FE
:1034D000001C3FE0018002100C601FC003100C0CA8
:1034E0003FFE00800890108C208643800000000082
:1034F0001060102033FE24404C407888118C11FE5F
:10350000245078D000D004907992431E020000002D
:103510000100010001003FF8210821083FF82108BF
:1035200021083FF83FF82100010201FE00000000E1
:10353000180018F818987E98189818983C983C9895
:103540003E985898599819181B1A1A0E0000000036
:10355000183018103E0022FE2A822A8222607E64E1
:10356000227C2A702A6062604262463E400000006F
:103570003FFC06200620062006207FFE7FFE062058
:10358000042004200C2018207020000000000000FF
:103590000420042006603FFC3FFC01800180018084
:1035A0007FFE0180034006700C1C700E00000000BE
:1035B000010202030405060708090A0B0C0D0E0F91
:1035C00010100000000000000000010203040607C4
:1035D0000809000000000102030400006469736C24
:1035E000696B65006C696B6500000000636C6F734C
:1035F0006500000073776974636800006F6B0000FA
:1036000070616C6D000000006F70656E000000005E
:103610006C656674000000007269676874000000E1
:10362000657869740000000066697374000000002A
:103630005036000800000020540000002801000857
:10364000A43600085400002094070000440100083C
:10365000000000000000000000000000000000006A
:1036600000000000000000001036000818360008B6
:10367000FC3500082036000808360008EC35000844
:10368000F4350008E4350008DC3500080036000891
:1036900028360008010000001000000000000000B3
:0436A00000127A009A
:04000005080000ED02
:00000001FF
