:020000040800F2
:10000000D008002089010008852B0008232400085F
:10001000152B00084B0900087D4B0008000000006C
:100020000000000000000000000000005D44000827
:100030004D09000800000000C14100089D4400086F
:10004000A3010008A3010008A3010008A301000800
:10005000A3010008A3010008A3010008A3010008F0
:10006000A3010008A3010008A3010008A3010008E0
:10007000A3010008A3010008A3010008A3010008D0
:10008000A3010008A3010008A3010008A3010008C0
:10009000A3010008A3010008A3010008A3010008B0
:1000A000A3010008A3010008A3010008A3010008A0
:1000B000A3010008A3010008A3010008A301000890
:1000C000A3010008A3010008A3010008A301000880
:1000D000A3010008654B0008714B0008A30100084C
:1000E000A3010008A3010008A301000800F002F822
:1000F00000F03AF80AA090E8000C82448344AAF188
:100100000107DA4501D100F02FF8AFF2090EBAE885
:100110000F0013F0010F18BFFB1A43F0010318473B
:10012000E855000008560000103A24BF78C878C18E
:10013000FAD8520724BF30C830C144BF04680C60ED
:10014000704700000023002400250026103A28BF35
:1001500078C1FBD8520728BF30C148BF0B60704739
:100160001FB51FBD10B510BD00F058F81146FFF7C0
:10017000F7FF04F015FD00F076F803B4FFF7F2FF87
:1001800003BC00F07DF8000009488047094800479B
:10019000FEE7FEE7FEE7FEE7FEE7FEE7FEE7FEE737
:1001A000FEE7FEE704480549054A064B7047000094
:1001B000FF440008ED000008D0020020D008002015
:1001C000D0040020D00400204FF0000200B51346F8
:1001D00094469646203922BFA0E80C50A0E80C5067
:1001E000B1F12001BFF4F7AF090728BFA0E80C5018
:1001F00048BF0CC05DF804EB890028BF40F8042B11
:1002000008BF704748BF20F8022B11F0804F18BF7D
:1002100000F8012B7047704770477047754600F033
:100220002BF8AE4605006946534620F00700854688
:1002300018B020B5FFF7B6FFBDE820404FF000062C
:100240004FF000074FF000084FF0000B21F00701BE
:10025000AC46ACE8C009ACE8C009ACE8C009ACE801
:10026000C0098D46704710B50446AFF300802046A4
:10027000BDE81040FFF781BF0048704770020020C2
:1002800001491820ABBEFEE72600020070470000BF
:100290000EB521B11AB18318B3F5807F01D90120C1
:1002A0000EBD32238DE80E0002460123A021024834
:1002B00000F046FE0EBD0000A40000202DE9FE4324
:1002C00016460F00804605D026B108EB0600B0F5B3
:1002D000807F02D90120BDE8FE83002522E000BF17
:1002E00008EB050101F00700721BC0F1080094B291
:1002F000844200D90446781900903222CDE90142A7
:100300008AB20123A021094800F048FF0028E2D169
:1003100032231422A021054800F05CFD0028DAD128
:10032000281985B2B542DBD30020D4E7A400002011
:100330000948012242730021417481748163C174B0
:100340000175C16341758175C1758171C17101729A
:100350004172827270470000000000202DE9F041D8
:1003600000F06EFC1F4C0546A07C0027012648B11A
:10037000A06B281A06D4A7746774A763E773677520
:10038000A775E675207D50B1E06B281A07D4277554
:10039000E774E76303F078FF6775A775E675A07CDF
:1003A00010B9207D00281AD0A07C08B1A06B00E015
:1003B000E06B401B002800DC00204FF47A7100F253
:1003C000E730B0FBF1F0C0B21E2800D91E20617DDD
:1003D00011B1A17D814202D06675A075E675BDE8B8
:1003E000F0810000000000207FB51A4CE07E00285C
:1003F0002FD00020E07648208DF8000047208DF8AF
:10040000010001268DF8026002208DF803006D4680
:1004100001A803F0D7FE28B19DF8030040F00100C9
:100420008DF803000B48002144306B18425C491CD6
:10043000C9B21A720429F8D3684600F069FA8DF837
:100440000C000D2269460020FFF738FF002800D07D
:10045000E6767FBD0000002070B51A4C617F002950
:100460002ED030282CD335282AD8217F04F15003F0
:10047000042904D2217F5854207F401C2077257FF7
:10048000002103200122042D6177A077A16416D3F7
:100490000C4D002044351E5C2E54401CC0B2042874
:1004A000F9D3E276E17322760420607600F0C8FB8F
:1004B00000F561702064BDE8704003F04BBCA2728F
:1004C00070BD00000000002010B5104CA079052878
:1004D00017D1607F002814D0207E002811D100F0B1
:1004E000AFFBA16C401A0CD4A07F01280AD9A07FD1
:1004F000401EA07700F0A4FB00F57A70A0640120F4
:10050000A07210BDBDE8104000F002B8000000204D
:1005100005488179052906D1002141770322827798
:100520008164012181727047000000202DE9FC41A7
:1005300072B6394CA07B0025A57362B6012740B185
:100540002776677600F07CFB00F56170206403F08D
:100550005DFD694601A803F0A1FE217D032619B1C6
:1005600020B303F091FE39E0012804D0022812D014
:10057000032829D032E0607BC0B9E5742575E563B6
:1005800067732776677600F05BFB00F56170206487
:1005900003F03CFD22E0607B40B99DF80000E07470
:1005A000E07C032803D3012000F094F916E02776BD
:1005B0000220607600F044FB00F5617020649DF835
:1005C000000003F0E9FC09E0E7762776667600F0A4
:1005D00037FB00F56170206403F06EFC207E00287C
:1005E00012D000F02DFB216C401A0DD42576607ED0
:1005F00001280BD0607E03280BD0607E042808D031
:10060000A67103F0A1FB6576BDE8FC81FFF790FEC3
:10061000F9E700F047F9F6E70000002070B53E4C1E
:100620000546A07968B93DA1284600F07DF920B9BA
:100630003CA1284600F078F918B1BDE8704000F000
:10064000E7B8A07968B135A1284600F06DF920B966
:1006500034A1284600F068F918B1BDE8704000F0F8
:1006600021B9A07958B1A079052818D0A07902281D
:100670002FD12EA1284600F057F9D0BB34E02DA190
:10068000284600F051F928B92BA1284600F04CF972
:1006900000281ED0E079BDE8704000F0E3B825A145
:1006A000284600F041F920B923A1284600F03CF982
:1006B00080B1207F04280CD2607F002809D1012559
:1006C00065770320A07700F0BBFA00F57A70A0648C
:1006D000A57270BD1AA1284600F026F90028F8D0AE
:1006E000BDE87040FFF714BF17A1284600F01CF9C1
:1006F00008B101200BE016A1284600F015F928B931
:1007000015A1284600F010F90028E2D00020BDE82D
:10071000704003F0A5BE00000000002065786974F9
:10072000000000006469736C696B65006F70656E32
:10073000000000006F6B00006C696B65000000003A
:10074000696E76616C69640070616C6D0000000018
:10075000636C6F73650000006669737400000000CD
:100760002DE9F041294C217C002930D1A17C0029C0
:100770002DD1A0F130010A2929D2E17B04F14C05E9
:10078000042909D2E17B6854E07B401CE073E17BE3
:100790000022284603F056FAE07B042817D30123F1
:1007A00000211A4E1A46443608466F5C16F801C0FE
:1007B000674501D0E0730CE0491CC9B20429F4D3A9
:1007C000E07333B16074A074A0636273A273BDE878
:1007D000F081607C032802D2607C401C6074607CE5
:1007E000032804D3BDE8F041002000F073B8227460
:1007F00000F026FA00F57A706063BDE8F041034826
:10080000012204214C3003F01DBA0000000000203A
:1008100010B5002002F080F9002003F021FE03F063
:1008200033FD0F48002141738173C173017441632B
:10083000417481748163C1740175C16341758175AF
:10084000C175017741770322827781640176417611
:100850008271C171017241720121817210BD00006B
:100860000000002070B50E4C012548B1012809D0C8
:10087000022809D0002103280AD0A171A57270BDF9
:10088000A571FBE7022009E003F068FD042005E004
:10089000217761770320A077A1640520A071EDE79F
:1008A0000000002010B5002002F036F9002003F00F
:1008B000D7FD0748002101774177032282778164C1
:1008C0008171C279027241720121817210BD0000F2
:1008D0000000002070B5064600F0B2F947F2305132
:1008E0000A4C0144012526B12575E16303F0CCFCD7
:1008F00001E0A574A16300202074E0732076607687
:1009000065751E20A075E57570BD00000000002013
:1009100000221146435C491C1A44C9B2D2B20C29C8
:10092000F8D382F0A500704703E09A4209D1401C39
:10093000491C02781AB10B78002BF6D101E0087837
:1009400008B10020704701207047FEE7704772B67B
:10095000FEE710B590F821100022022905D00421ED
:10096000816380F82020012010BD01680B6823F00E
:100970000E030B6001680B6823F001030B6090F815
:100980004030C46B012101FA03F3636080F8211049
:1009900080F82020104610BD10B590F821100024DA
:1009A000022903D00421816301243DE001680A6823
:1009B00022F00E020A6001680A6822F001020A6051
:1009C0001A4A0168914201D1012121E0174A1432EB
:1009D000914201D110211BE0144A2832914201D1E9
:1009E000891515E0114A3C32914201D189140FE07A
:1009F0000E4A5032914202D14FF4803108E00B4A46
:100A00006432914202D14FF4801101E04FF08071C5
:100A1000064A083A5160012180F82110002180F82F
:100A20002010416B01B18847204610BD08000240EC
:100A300070B5044600F004F90546601C02D0044875
:100A40000078044400F0FCF8401BA042FAD370BDCB
:100A5000940000202DE9F84FDFF8B8910024A9F1A7
:100A6000040B23460F2709F1040AABF1040EC9E079
:100A70000125A5402A40AA427DD1674ED1F804C085
:100A8000ACEB0608B44532D014DCBCF1030F3AD00D
:100A900009DCBCF1000F2AD0BCF1010F1CD0BCF165
:100AA000020F31D11DE0BCF1110F17D0BCF1120FB4
:100AB0002AD119E0B8F5881F19D006DCB8F5803FB7
:100AC00015D0B8F5801F1FD111E0B8F5001F0ED06A
:100AD000B8F5041F18D10AE0CB6815E0CB681B1DE0
:100AE00012E0CB6808330FE0CB680C330CE08B6866
:100AF0002BB1012B4FF0080303D0456104E0042320
:100B000002E0056100E00023FF2A01D8064601E06B
:100B100000F104064FEA840501D9A5F12005D6F8B5
:100B2000008007FA05FC28EA0C0803FA05F548EAF4
:100B30000508C6F800804D68ED0062D5374DAE69F6
:100B400046F00106AE61AD6924F0030605F001052B
:100B50000095334D06EB050CDCF80850A607360F60
:100B600007FA06F825EA0805DFF8B880404503D102
:100B70004FF0000817E044E0DFF8AC80404502D1B8
:100B80004FF001080FE0DFF8A480404502D14FF09C
:100B9000020808E0DFF89880404502D14FF00308D2
:100BA00001E04FF0040808FA06F848EA0508CCF816
:100BB00008804D68D9F80060ED024D4601D5164316
:100BC00000E096432E604D68DAF80060AD025546AD
:100BD00001D5164300E096432E604D68DBF80060B7
:100BE000AD035D4601D5164300E096432E604D6887
:100BF000DEF80060ED03754601D5164300E096432C
:100C00002E60641C0D682A46E5407FF431AFBDE8D4
:100C1000F88F00000804014000001110001002408D
:100C20000000014000080140000C0140001001409C
:100C3000001401400AB1016170470904FBE700009C
:100C400001488068704700009400002070B50400DF
:100C500025D094F83D00002520B984F83C5020466A
:100C600000F034FB242084F83D002068016821F066
:100C7000010101602068016841F4004101602068C1
:100C8000016821F40041016000F086FC4D4A616872
:100C9000914201D84C4900E04C49884201D20120E0
:100CA00070BD4B492368B0FBF1F15E6826F03F064A
:100CB0000E435E606368934206D94FF496735943BE
:100CC0004FF47A73B1FBF3F12368491C1E6A26F0D6
:100CD0003F06314319626168914210D84900401EB5
:100CE000B0FBF1F2521CC2F30B02042A01D2042021
:100CF00022E0B0FBF1F0401CC0F30B001CE0A26846
:100D0000F2B301EBC10303EB0116431EB3FBF6F391
:100D10005B1C43F480431B0549D092B301EBC10235
:100D200002EB0111401EB0FBF1F0401CC0F30B00C0
:100D300040F4804040F400402168CA694CF6FF73DB
:100D40009A431043C861D4E9071001432068026840
:100D500022F0C00211430160D4E90301014320687D
:100D6000826848F2FF339A4311438160D4E9050158
:100D700008432168CA6822F0FF021043C86001E0FE
:100D80000EE016E02068016841F001010160256471
:100D9000202084F83D00256384F83E50002070BD7B
:100DA00001EB4106431EB3FBF6F35B1CB3E70120E6
:100DB000C2E701EB4101401EB0FBF1F0401CC0F363
:100DC0000B00B7E7A086010080841E0000093D00EB
:100DD00040420F002DE9FF4F81B089460446FFF7DE
:100DE0002FFF054694F83D004FF0000820287DD1E4
:100DF0001923012250492046009501F029FC0028C2
:100E000074D194F83C00012870D0012084F83C0093
:100E100020680168C90703D1016841F00101016040
:100E20002068016821F400610160242084F83D00FD
:100E3000002626644148E0624FF0011B202720680D
:100E4000016841F4807101600095002259462046F6
:100E5000049B01F0FDFB50B120680068C00502D57D
:100E60004FF400702064032005B0BDE8F08F2168C6
:100E700009F0FE000861FFF7E3FE216805464869B6
:100E80004969C0F34000C1F380214FF0A00A0FE090
:100E9000FFF7D6FE411B0498814200D808B984F8B8
:100EA0003DA0216848694969C0F34000C1F3802131
:100EB00094F83D20A02A02D008B90029E8D084F88F
:100EC0003D7020684169C943890716D4016841F41F
:100ED0000071016020684169806919230122164967
:100EE0002046009501F0B4FBB8B900E021E084F899
:100EF0003D7084F83C600020B6E7016841F4007161
:100F0000016021686FF480604861192301220A4959
:100F10002046009501F09CFB08B10120A4E703984E
:100F200008F1010880458AD384F83D7084F83C605C
:100F3000F3E7022098E70000020010000000FFFF26
:100F40002DE9FF4F83B00025DDE910799A469346DD
:100F50000446DDF848800095FFF772FE064694F8D7
:100F60003D0020287CD11923012288492046009683
:100F700001F06EFB0028F5D194F83C0001286FD0F9
:100F8000012084F83C0020680168C90703D101688A
:100F900041F0010101602068016821F400610160F5
:100FA000222084F83D00402084F83E0025646762DA
:100FB000A4F82A90608D20857548E062CDE900860E
:100FC00053465A462046049901F044FA00287CD141
:100FD000208DDFF8C091202768B1012814D00228A5
:100FE000206801681ED041F4806101602068416979
:100FF00080690090BCE020684169816900910168C6
:1010000041F400710160B3E02068016821F480615F
:10101000016072B62068416981690091016841F4FC
:1010200000710AE041F40061016072B62068416914
:1010300081690091016821F48061016062B697E0E6
:10104000032865D801280CD0022843464FF000023F
:101050004946204600960BD001F0FAFAA8BB0CE0F6
:1010600091E032464146204601F098FB68BB72E0B1
:1010700001F0EEFA48BB72B633E02068016821F453
:101080008061016072B620680069616A0870606AF8
:10109000401C6062208D401E2085608D401E608552
:1010A0003D4846F2A8110068B0FBF1F0C0EBC0006B
:1010B00000EB80000090401E009007D0206840693F
:1010C000C04340070DD50098F5E727E044F8305FAE
:1010D0006773A573206940F02000206162B6257314
:1010E0001CE02068016841F400710160206800691B
:1010F000616A0870606A401C6062218D491E21850A
:10110000618D491E618562B621680969017026E01A
:1011100032464146204601F041FB18B1012007B09C
:10112000BDE8F08F20680069616A0870606A401C41
:101130006062208D401E81B22185608D401E6085D9
:1011400020684269D243520712D4032903D10168AF
:1011500021F48061016020680069616A0870606A3A
:10116000401C6062208D401E2085608D401E608581
:10117000208D00287FF464AF84F83D7084F83E50E1
:1011800084F83C50CBE70220C9E7000002001000C1
:101190000000FFFF04000100A00000202DE9FF4F28
:1011A00083B09A46DDE9119793460446DDF8408006
:1011B000FFF746FD054694F83D0020287FD119230E
:1011C000012240492046009501F042FA002876D1DC
:1011D00094F83C00012872D0012084F83C0020687B
:1011E0000168C90703D1016841F00101016020686D
:1011F000016821F400610160212084F83D00402055
:1012000084F83E0000262664C4F82480A4F82A90BE
:10121000608D20852C48E062CDE9007553465A4622
:101220002046049901F094F970B930E02A46394615
:10123000204601F0EBFA58B1206C042804D1206854
:10124000016841F400710160012007B0BDE8F08F32
:10125000606A216800780861606A401C6062218DC4
:10126000491E89B22185628D521E628522685369AA
:10127000DB435B070BD469B100781061606A401CE6
:101280006062208D401E2085608D401E6085208D0F
:101290000028CBD12A463946204601F0ADF9002876
:1012A000CAD154F83D0B016841F40071016020205F
:1012B00004F81E09E67766770020C6E7FFE70220FC
:1012C000C3E70000020010000000FFFF10B586B069
:1012D0000021009101910291039100681349884215
:1012E00022D1134CA06940F00800A061A0696946B2
:1012F00000F0080004904FF440700090122001901C
:10130000032003900B48FFF7A5FB0B48416841F011
:10131000E06141F002014160E06940F40010E061E9
:10132000E06900F40010049006B010BD00540040C5
:1013300000100240000C014000000140024881689A
:10134000027811448160704794000020074810B56E
:10135000016841F010010160032000F075F80F20D2
:1013600000F006F800F024F8002010BD0020024034
:1013700070B50D4D04464FF47A712878B1FBF0F04A
:101380000A490968B1FBF0F000F017FC48B9102CCD
:1013900007D200222146501E00F036F800206C6073
:1013A00070BD012070BD000094000020A00000204E
:1013B0000C4808B5816941F001018161816901F042
:1013C00001010091C16941F08051C161C06900F023
:1013D000805000900448416821F0E06141F00071C4
:1013E000416008BD0010024000000140002809DBF8
:1013F00000F01F02012191404009800000F1E0202F
:10140000C0F8001170470000F0B40E4B1B680C468A
:10141000C3F30223C3F10705042D00D90425191DC8
:10142000072901D2002300E0DB1E012606FA05F1A0
:10143000491E214099409E40761E16403143F0BC23
:1014400003F09DBB0CED00E0064900F007020868C0
:101450004FF6FF03184040EA0220034A1043086099
:10146000704700000CED00E00000FA052DE9F047A0
:101470000F46050061D0434E306800F00700B842C7
:1014800009D2306820F0070038433060306800F03F
:101490000700B84251D128683B4C810712D540075C
:1014A00003D5606840F4E06060602878000703D5E9
:1014B000606840F4605060606068A96820F0F000E7
:1014C000084360602878C00728D06868012810D0D9
:1014D0002168022810D0890700292EDA616821F0DE
:1014E000030101436160FFF7ABFB804641F288399D
:1014F0000DE021688903EFE78901EDE7FFF7A0FB25
:10150000A0EB0801494502D90320BDE8F0876068D7
:10151000696800F00C00B0EB810FEFD1306800F08B
:101520000700B8420BD9306820F00700384330601C
:10153000306800F00700B84201D00120E5E72878C4
:10154000400705D56068E96820F4E0600843606002
:101550002878000706D56068296920F4605040EAC1
:10156000C100606000F038F86168084AC1F30311F7
:10157000515CC8400649086006480068FFF7F8FE5D
:101580000020C2E70020024000100240AA560008D6
:10159000A000002098000020044805490068496820
:1015A000044AC1F30221515CC8407047A0000020EA
:1015B00000100240BA56000804480549006849680E
:1015C000044AC1F3C221515CC8407047A00000200A
:1015D00000100240BA5600080E4A51680E4801F049
:1015E0000C03042B11D0082B0FD10C48C1F38343FB
:1015F000C903C05C0AD55168084AC1F34041921E34
:10160000515C054A5043B0FBF1F070470449484330
:10161000704700000010024000127A009A5600083D
:1016200000093D002DE9F84F040070D02078C04D2E
:10163000C00749D06868C0F38100012807D06868F6
:10164000C0F38100022809D16868C00306D5286864
:10165000800339D560680028E7D035E06068B0F5D0
:10166000803F0BD010B1B0F5A02F11D0286820F426
:1016700080302860286820F4802002E0286840F448
:1016800080302860606890B1FFF7DAFA06460AE019
:10169000286840F480202860F0E700BFFFF7D0FA08
:1016A000801B642873D828688003F7D50CE0FFF707
:1016B000C7FA064605E000BFFFF7C2FA801B6428A0
:1016C000F0D828688003F7D420789A4E80074FF02E
:1016D00001094FF0000839D5686810F00C0F07D0E9
:1016E0006868C0F38100022809D16868C00306D485
:1016F0002868800714D52069012808D110E02069E6
:10170000B0B1C6F80090FFF79BFA074605E00AE182
:10171000FFF796FAC01B0228C4D828688007F7D5BF
:101720002868616920F0F80040EAC10028600DE0F7
:10173000C6F80080FFF784FA074604E0FFF780FA56
:10174000C01B022823D828688007F7D42078000718
:101750002CD57948A169D9B1C0F80090FFF770FA8B
:10176000074604E0FFF76CFAC01B02280FD8686A2E
:101770008007F7D571484FF4FA510068B0FBF1F0DB
:10178000009000BF0098411E0091FAD20EE080E068
:10179000C0F80080FFF754FA074604E0FFF750FA5C
:1017A000C01B022875D8686A8007F7D420784007E4
:1017B00060D5E8690027C00008D4E86940F080508F
:1017C000E861E869012700F0805000905C480168FA
:1017D000C90513D40168834641F480710160FFF7A5
:1017E0002FFA824606E000BFFFF72AFAA0EB0A00B4
:1017F00064284ED8DBF80000C005F5D5E068012864
:101800000AD008B1052813D0286A20F00100286208
:10181000286A20F0040002E0286A40F001002862F3
:10182000E06841F2883B98B1FFF70AFA82460BE084
:10183000286A40F004002862EEE700BFFFF700FAD4
:10184000A0EB0A0159455AD8286A8007F6D50CE062
:10185000FFF7F6F9824605E0FFF7F2F9A0EB0A017F
:1018600059454CD8286A8007F6D41FB1E86920F0A2
:101870008050E861E06988B36968C1F38101022999
:1018800044D00228C6F8608004D0FFF7D9F9044696
:1018900038E034E0FFF7D4F9074604E0FFF7D0F969
:1018A000C01B02282BD828688001F7D4206AB0F525
:1018B000803F05D16868A16820F400300843686063
:1018C000D4E908010843696821F474110843686089
:1018D000C6F86090FFF7B4F9044606E025E000BFC3
:1018E000FFF7AEF9001B022809D828688001F7D558
:1018F0001BE000BFFFF7A4F9001B022802D9032058
:10190000BDE8F88F28688001F4D40EE00128F7D0F4
:101910006868226A00F48031914204D1616A00F45F
:101920007010884201D00120EAE70020E8E70000BB
:10193000001002400000424280044242A000002009
:101940000070004070B5040009D0606A002540B105
:1019500025616561A56294F8510040B10CE0012059
:1019600070BD6068B0F5827FF4D0E561F2E784F87D
:101970005050204600F040F8022084F851002068C2
:10198000016821F040010160A088218900F4827083
:1019900001F404410843A18901F400610843217C5A
:1019A00001F002010843217D01F001010843218B70
:1019B00001F400710843217F01F03801084394F8D5
:1019C000201001F080010843218D01F400510843EB
:1019D00021680860A069042101EA1040216848607C
:1019E0002068C16921F40061C1616565012084F846
:1019F0005100002070BD000000B585B000210091AD
:101A000001910291039100680F4988421AD10F4851
:101A1000816941F480518161816901F480510491AF
:101A2000816941F0040181618069694600F0040028
:101A30000490A0200090022001900320039004480D
:101A4000FFF708F805B000BD00300140001002406B
:101A5000000801402DE9F84F984616468A4604468C
:101A6000FFF7EEF8814694F8510001281ED1BAF133
:101A7000000F73D0002E71D094F85000012815D0BB
:101A8000012784F85070032084F851000025656513
:101A9000C4F830A0A686E686A563A587E5876564B9
:101AA0002564A068B0F5004F03D00CE00220BDE82B
:101AB000F88F2068016821F040010160206801680A
:101AC00041F48041016020680168490603D401683F
:101AD00041F040010160E068B0F5006F606803D03C
:101AE00048B3012E27D047E008B1012E1FD1206B4B
:101AF00021680088C86006E020688168890709D5E8
:101B0000216B0988C160206B801C2063E08E401E21
:101B1000E0860CE0FFF794F8A0EB0901414503D300
:101B2000B8F1FF3F03D035E0B8F1000F32D0E08EBE
:101B30000028E1D123E0206B21680078087306E0DB
:101B40002068816889070AD5216B09780173206BA9
:101B5000401C2063E08E401EE0860DE02BE0FFF786
:101B60006FF8A0EB0901414503D3B8F1FF3F03D063
:101B700010E0B8F1000F0DD0E08E0028E0D14A4609
:101B80004146204602F0F4FB08B120206065A068C1
:101B900030B109E084F8517084F85050032086E792
:101BA0002068C1688068009084F8517004F8505F24
:101BB00060680028F3D0012079E710B5401EB0F12D
:101BC000807F01D3012010BD4FF0E02460610F2120
:101BD000601702F0D4FF0020A061072020610020E0
:101BE00010BD000070B590F83C20012A26D00124D9
:101BF00080F83C40022280F83D2003685A689D68C6
:101C000022F070060A6832435A600D4B02689A420D
:101C100008D0B2F1804F05D00A4B9A4202D00A4B4D
:101C20009A4204D1496825F080031943916080F8F5
:101C30003D40002180F83C10084670BD022070BD78
:101C4000002C0140000400400008004010B50400D2
:101C500003D094F83D0010B107E0012010BD002032
:101C600084F83C00204600F01FF8022084F83D0074
:101C7000211D206802F044FC012084F8460084F80D
:101C80003E0084F83F0084F8400084F8410084F866
:101C9000420084F8430084F8440084F8450084F846
:101CA0003D00002010BD000008B501680B48B1F1EF
:101CB000804F0BD00A4A914207D1C16941F004011B
:101CC000C161C06900F00400009008BDC16941F025
:101CD0000101C161C06900F00100F5E70010024098
:101CE0000008004070B5044690F83C00002501282B
:101CF00017D0012684F83C60022084F83D0020685B
:101D0000826822F0770222F47F42826008685028BD
:101D100038D00DDC20284FD005DC90B3102811D12D
:101D20004AE0022070BD302846D040280AD13BE06E
:101D300060282FD070280DD0B0F5805F03D0B0F5AB
:101D4000005F12D0012584F83D60002084F83C003B
:101D5000284670BDCB68D1E90121206802F019FC4A
:101D60002068816841F0770109E0CB68D1E9012161
:101D7000206802F00EFC2068816841F48041816097
:101D8000E1E719E0CA684968206802F0B7FC502111
:101D9000206806E0CA684968206802F0C0FC60213B
:101DA000206802F000FCCEE7CA684968206802F0AB
:101DB000A5FC40212068F4E7226801461046F0E7C0
:101DC00000B585B000210091019102910391026854
:101DD00014480221B2F1804F14D0134B9A420FD114
:101DE000826942F0080282618069039100F0080074
:101DF00004904020CDE9000169460C48FEF72AFE18
:101E000005B000BD826942F00402826180690391DD
:101E100000F0040004900120CDE900016946044867
:101E2000ECE700000010024000080040000C0140F8
:101E30000008014070B5044690F83C0000260D46AD
:101E400001280FD0012084F83C006AB1042A1DD07B
:101E5000082A2FD00C2A3FD00126002084F83C000D
:101E6000304670BD022070BD206802F0A5FB2068DE
:101E7000816941F0080181612068816921F00401D4
:101E80008161206881692A69114311E0206802F0AC
:101E9000BBFB2068816941F4006181612068816930
:101EA00021F480618161206881692A6941EA022107
:101EB0008161D2E7206802F0D3FB2068C16941F05C
:101EC0000801C1612068C16921F00401C161206875
:101ED000C1692A69114311E0206802F0EDFB206816
:101EE000C16941F40061C1612068C16921F4806168
:101EF000C1612068C1692A6941EA0221C161ACE778
:101F000010B5040003D094F83D0010B107E00120A3
:101F100010BD002084F83C00204600F01EF802208E
:101F200084F83D00211D206802F0EAFA012084F8BF
:101F3000460084F83E0084F83F0084F8400084F8AE
:101F4000410084F8420084F8430084F8440084F897
:101F5000450084F83D00002010BD704710B50446D0
:101F6000022249B104290ED0082913D094F8410067
:101F7000012816D0012010BD94F83E000128F9D1A7
:101F800084F83E200FE094F83F000128F2D184F855
:101F90003F2008E094F840000128EBD184F840206D
:101FA00001E084F841200122206802F0E5FA0F499F
:101FB0002068884203D1426C42F4004242642068A7
:101FC000884208D0B0F1804F05D00949884202D03C
:101FD0000849884204D1816801F00701062903D02D
:101FE000016841F001010160002010BD002C01409A
:101FF00000040040000800407047000000680549E8
:10200000884201D102F092BC0349884201D102F01A
:1020100097BC70470038014000440040F8B50168A3
:1020200004460868CA684B6910F00F0F4FF00005AE
:1020300059D003F0010602F49077374365D0C10709
:1020400005D0D10503D5616C41F001016164410700
:1020500005D5D90703D0616C41F0020161648107A5
:1020600005D5D90703D0616C41F004016164010713
:1020700007D502F02001314303D0616C41F0080123
:102080006164616C00293AD0800604D5900602D5BF
:10209000204602F08EFC20684069616CC0F380101D
:1020A000090700D460B3204602F05CFC2068406958
:1020B000400621D52068143050E8001F21F040016F
:1020C00040E80012002AF5D1E06BA8B16D494163E8
:1020D000E06BFEF761FC002811D0E06B416B01B0B2
:1020E000BDE8F040084783060FD593060DD520467E
:1020F000BDE8F84002F05DBC2046FFF77FFFF8BD69
:102100002046FFF77BFF6564F8BD266B2023012E78
:102110007CD1C6067AD5D60678D50868486800907E
:1021200048694FF00206400640D5E16B08684068F8
:102130000004000CE8D0A28D8242E5D9E0858869D0
:1021400020282DD020680C3050E8001F21F4807129
:1021500040E80012002AF5D12068143050E8001F32
:1021600021F0010140E80012002AF5D12068143066
:1021700050E8001F21F0400140E80012002AF5D18C
:1021800084F84230256320680C3050E8001F21F0AD
:10219000100140E80012002AF5D1E06BFEF7D9FBF0
:1021A0006663A08DE18D401A81B22AE0A08DE18D99
:1021B000401A81B2E08D0028A6D00029A4D0226860
:1021C0000C3252E8000F20F4907042E80007002F14
:1021D000F5D12068143050E8002F22F0010240E8C9
:1021E0000027002FF5D184F84230256320680C3099
:1021F00050E8002F22F0100240E80023002BF5D118
:1022000066632046FFF7F8FEF8BDFFE705062BD50D
:10221000150629D594F841002128F5D1A068B0F51C
:10222000805F01D12069B0B1206A411C2162216820
:1022300000784860E08C401E0004000CE084E3D18C
:102240002068C16821F08001C1602068C16841F048
:102250004001C160D8E7206A0088C0F308004860E8
:10226000206A801C2062E5E74006CDD55006CBD51C
:10227000CA68204622F04002CA6084F8413000F06B
:10228000CFF8C1E75549000870B5040004D094F8B0
:102290004100002510B106E0012070BD84F84050D7
:1022A000204600F023F8242084F841002068C1680B
:1022B00021F40051C160204602F0DCFB2068016976
:1022C00021F4904101612068416921F02A014161B6
:1022D0002068C16841F40051C1606564202084F821
:1022E000410084F842006563002070BD70B586B07F
:1022F000002400940194029403942E4E03682E4906
:10230000022003222D4DB34226D18B6943F4804332
:102310008B618B6903F4804304938B6943F004035E
:102320008B618969039201F0040104910102CDE9F6
:10233000001069462846FEF78DFB2815CDE90004FC
:10234000694628460294FEF785FB002211462520A7
:10235000FFF75AF8252028E0194EB34227D1CB6960
:1023600043F40033CB61CB6903F4003304938B69EE
:1023700043F004038B618969039201F00401049125
:102380000421CDE9001069462846FEF763FB0820CA
:10239000CDE90004694628460294FEF75BFB002263
:1023A00011462620FFF730F82620FFF71FF806B069
:1023B00070BD0000003801400010024000080140DC
:1023C0000044004090F84230202B01D0022070479A
:1023D00021B11AB10023036302F0A8BB01207047AA
:1023E00010B500680B4A0C49904206D1C87F02F034
:1023F000A9F9BDE8104002F099BA084A904207D105
:1024000091F8200001F060FFBDE8104002F098BA9A
:1024100010BD0000003801400000002000440040D2
:102420007047FEE701684A69D24352050FD46FF442
:1024300080624A61002140F8301F2022427381737C
:10244000026942F00402026101730120704700201A
:10245000704700002DE9F84F0446006889460B9D3F
:1024600001689846174641F4806101602068016860
:1024700041F48071016000954FF0011B0022594624
:1024800020460A9B00F0E4F84FF4007A40B120683F
:102490000068C00501D5C4F840A00320BDE8F88F4E
:1024A000216809F0FE0008612B46284920460A9A57
:1024B00000F016F9F0BB20684169806900902A4657
:1024C00020460A9900F0A2F940B1206C04283AD1C4
:1024D0002068016841F40071016034E0FEB2B8F197
:1024E000010F09D02168380A08612A4620460A9956
:1024F00000F08CF90028E8D1206806612A462046C1
:102500000A9900F083F90028DFD12068016841F4BE
:102510008071016000950022594620460A9B00F018
:1025200097F80028B3D1216809F0FF0040F00100BE
:10253000086100E007E02B46044920460A9A00F0B3
:10254000CFF80028AAD00120A8E70000020001006F
:102550002DE9F843044600680D46DDE90897016857
:102560009846164641F4807101604B4600224FF0B8
:1025700001112046009700F06BF848B12068006810
:10258000C00502D54FF4007020640320BDE8F88335
:10259000216805F0FE0008613B464A461549204681
:1025A00000F09EF888B920684169806900903A4639
:1025B0004946204600F02AF948B1206C042804D18D
:1025C0002068016841F4007101600120DEE7F5B286
:1025D000B8F1010F09D02168300A08613A4649462E
:1025E000204600F013F90028E7D12068056100209B
:1025F000CCE700000200010070B516460D46044607
:102600001EE02046FFF70EFF08B1012070BD681CD8
:1026100016D0FEF715FB801BA84200D885B92068AC
:102620004069C04340070BD5002044F8300F2021FB
:102630006173A073216941F0200121612073E4E7F7
:1026400020684069C0434007DBD4002070BD000013
:102650002DE9F047984617460D460446C1F3074654
:10266000DDF820902AE000BFB8F1FF3F26D0FEF74A
:10267000E7FAA0EB0901414502D8B8F1000F1DD1DE
:102680002068012E16D0806925EA00000004000CA5
:1026900012D00020B84211D1002044F8300F202180
:1026A0006173A073216941F0200121612073012031
:1026B000BDE8F0874069E7E70120EBE72068012EDD
:1026C0000AD0806925EA00000004000C06D0002032
:1026D000B842C9D00020EBE74069F3E70120F7E7F3
:1026E0002DE9F047984616460D4604464FF000097E
:1026F0004FF0200AC1F3074723E020684069C04338
:10270000400515D42068016841F40071016021681A
:102710006FF480604861C4F8309084F83DA084F87C
:102720003E90216C41F00401216484F83C9021E04A
:10273000701C06D0FEF784FAA0EB0800B04203D864
:1027400016B1012F1FD021E02068012F15D080691C
:1027500025EA00000004000C18D000BF44F8309FA8
:1027600084F80DA084F80E90216941F020012161C8
:1027700084F80C900120BDE8F087406925EA00004C
:102780000004000CEAD12068406901E020688069FB
:1027900025EA00000004000CAFD1ECE72DE9F04180
:1027A000002590460E460446202728E04069C04395
:1027B000C0060CD454F8301B6FF01000486144F888
:1027C00010596777A577206A2062257714E0FEF715
:1027D00037FAA0EB0800B04200D886B920684069FB
:1027E000C04340060BD544F8305F6773A57320697A
:1027F00040F02000206125730120BDE8F0812068B1
:102800004169C9434906D1D40020F6E770B51646A0
:102810000D4604461EE02046FFF704FE08B10120E5
:1028200070BD681C16D0FEF70BFA801BA84200D8BA
:1028300085B920684069C04300060BD5002044F8E4
:10284000300F20216173A073216941F020012161C3
:102850002073E4E720684069C0430006DBD4002011
:1028600070BD000030B585B000241C480094019470
:1028700002940394816941F020018161816901F032
:1028800020010491816941F004018161816901F0B5
:1028900004010491816941F0080181618069104D52
:1028A00000F008000490002247F201012846FEF7DC
:1028B000C1F9012240F202412846FEF7BBF947F276
:1028C000034000900120CDE90104022003906946F5
:1028D0002846FEF7BFF805B030BD000000100240EA
:1028E000000C01400D4810B50B4901600C494160D6
:1028F00000214FF480428160C0E90312416181618F
:10290000C1610162FEF7A2F9002803D0BDE81040C2
:10291000FEF71DB810BD000000540040A4000020C8
:10292000A0860100104810B50E4901604FF4827175
:10293000416000218160C1604FF400720161C0E913
:1029400005121022C0E90721416281620A21C16299
:10295000FEF7F8FF002803D0BDE81040FDF7F7BFF1
:1029600010BD000000300140F800002010B58EB00E
:1029700000240794089409940A940B941C21684637
:102980000C94FDF721FC1E484FF080410160472167
:10299000C0E9011440F2E731C0E9031480218161EC
:1029A000FFF754F908B1FDF7D2FF4FF480500790BC
:1029B00007A91348FFF796F908B1FDF7C8FF1048BB
:1029C000FFF79EFA08B1FDF7C2FF0B940BA90C4864
:1029D0000C94FFF707F908B1FDF7B9FF6020CDE9C6
:1029E000000402940022694605480494FFF722FA85
:1029F00008B1FDF7ACFF0248FFF7E2F90EB010BDD9
:102A00005001002010B58EB000240794089409945A
:102A10000A940B941C2168460C94FDF7D5FB2048C2
:102A20001E4901604721C0E9011444F61F61C0E955
:102A3000031480218161FFF709F908B1FDF787FFD1
:102A40004FF48050079007A91548FFF74BF908B1DC
:102A5000FDF77DFF1248FFF753FA08B1FDF777FF46
:102A60000B940BA90E480C94FFF7BCF808B1FDF7C6
:102A70006EFF602000904FF47A70CDE901040022CF
:102A8000694607480494FFF7D5F908B1FDF75FFFE1
:102A90000348FFF795F90EB010BD00000008004094
:102AA000980100200C4810B50A4901604FF4E1314B
:102AB0004160002181600C22C160C0E90412816183
:102AC000C161FFF7E1FB002803D0BDE81040FDF72E
:102AD0003EBF10BD00380140E00100200C4810B599
:102AE0000A4901604FF4E1314160002181600C220C
:102AF000C160C0E904128161C161FFF7C5FB002814
:102B000003D0BDE81040FDF722BF10BD00440040D7
:102B100028020020FEE700002DE9F041B0F57A7FA1
:102B200002D340F2E7300CE020B1B0F5967F03D835
:102B3000012507E0002505E0B0F5167F01D8022544
:102B400000E003250D4C60840026A670A66298B1B3
:102B5000002060710127E7702771FEF771F864307B
:102B6000E062074800684663A6842078A84200D047
:102B700025706770BDE8F0810120EAE700000020C1
:102B800050010020FEE72DE9FC5F0C46042847D2E7
:102B9000042C45D2A04204D1BDE8FC5F084601F0F8
:102BA00040B8C0EBC00101EB001000F1210AC4EBFA
:102BB000C40000EB04102130D0464FF01909012663
:102BC0004FF0170B0190122332465046019900F046
:102BD000CDFC0546122332461921172000F0C6FC11
:102BE0000746A5F1160090FBFBF0C0B2042800D305
:102BF00020462B464A464146009700F09FFBA846D8
:102C0000B9460620FDF714FF761CF6B2122EDAD96B
:102C1000192000904A4641462046019B00F08EFB59
:102C2000BDE8FC9F2DE9F84F1E460C468346092A55
:102C300058D82D481423855C002000900E22584659
:102C400000F0AEFCE8070BF1030706D0B8B2022390
:102C500008222146009600F0A3FCA90704F1020A0D
:102C60000BF10C0908D51FFA8AF11FFA89F0072326
:102C70000222009600F094FC690704F10B0808D5C5
:102C80001FFA88F11FFA89F007230222009600F04C
:102C900087FC280708D504F1120081B2B8B20223DC
:102CA0000822009600F07CFCE80607D51FFA88F1A0
:102CB000072302225846009600F072FCA80607D5AA
:102CC0001FFA8AF1072302225846009600F068FC9A
:102CD000680607D50934A1B2B8B2022308220096CB
:102CE00000F05EFCBDE8F88F8E5600082DE9FC4729
:102CF0000D46DDE90A181C461646074611B14FF687
:102D0000E07001E040F2FF705FEA080202D04FF489
:102D1000FC6201E04FF62052914609B1022100E029
:102D20000121CDE9000123B232B229B238B200F05C
:102D300086F85FEA0803A4F1080205F1040107F12F
:102D400004004FF6FF7A05EB54081FD040F641030C
:102D5000009393B2A6F10C0292B289B280B200F055
:102D60001FFC0320B6FBF0F20A3CA3B26D1D07EB7B
:102D70005604A9B2A0B2CDF8009000F011FC241DB9
:102D80001FFA88F1A0B2CDF800A010E093B2A6F12E
:102D9000080292B289B280B2CDF8009000F000FC37
:102DA000B8190B381FFA88F180B2CDF800A00323C0
:102DB0001A4600F0F5FBBDE8FC872DE9FC471F46ED
:102DC0000AB1122400E00E240122CDE90072630052
:102DD0000E46A1EB04080546A0EB04091A460FFABB
:102DE00088F10FFA89F000F02AF808F10401A81E12
:102DF00009B2E31F052200B2009700F00EFCB01EDE
:102E000001B2E81C0523621F00B2009700F005FC28
:102E100009F10500F11C00B20523A21F09B20097B9
:102E200000F0FBFB4FF6FF700723F61EED1E00902F
:102E30001A4631B228B200F0F0FBBDE8FC872DE95C
:102E4000F8431E46DDE9085491460F468046234666
:102E5000009500F0E2FBB819001B01B223464A4678
:102E60004046009500F0D9FB33462246394640469D
:102E7000009500F0D2FB08EB0900001B00B23346BE
:102E800022463946009500F0C8FBBDE8F8830000F3
:102E90002DE9FC410C4605461BB14FF6FF77022099
:102EA00001E017460120CDE900201C231A4621B27B
:102EB00028B2FFF7C4FF04F1110081B2681D80B28F
:102EC00006231222009700F06BFB04F1090081B287
:102ED00005F10B0080B20D230522009700F060FB86
:102EE0005FF0000606F001002044401D81B206EBB1
:102EF00086002844401D80B20F230322009700F073
:102F00004FFB761CF6B2042EECD30C341535A1B26F
:102F1000A8B208230322009700F042FBBDE8FC8121
:102F20002DE9F04389B0984600F11003DDF8409098
:102F3000802B2DD801F11003802B29D8164B03EBE1
:102F4000421710231A4600F007FD002480266D4624
:102F50000020620002EBD00100F00703795C26FA42
:102F600003F3194201D0414600E049460B0A05F837
:102F7000103005EB4003401CC0B259701028E9D353
:102F80002021684601F0F8F8641CE4B2102CDFD36D
:102F900009B0BDE8F0830000AE5300082DE9F0470A
:102FA0008CB0994600F11803DDF850A0802B3CD876
:102FB00001F11803802B38D81D4B03EB421718235F
:102FC0001A4600F0C9FC002418254FF080086E4610
:102FD0002001B0FBF5F001060020CB0D42460101B7
:102FE000B1FBF5F1C9B203EBD10C01F0070117F801
:102FF0000CC022FA01F11CEA010F01D0494600E0A1
:1030000051464FEA112C06F810C006EB400C401C4C
:10301000C0B28CF801101828E1D33021684601F0C5
:10302000ABF8641CE4B2182CD2D30CB0BDE8F08726
:10303000AE5300082DE9F0438DB09846DDF850906E
:1030400080282FD280292DD2184B02EBC20203EB2D
:10305000C20718231A4600F07FFC002480266D4624
:10306000002004EB440200BF02EBD00100F0070394
:10307000795C26FA03F3194201D0414600E0494643
:103080000B0A05F8103005EB4003401CC0B2597024
:103090001828E9D33021684601F06EF8641CE4B2C8
:1030A000182CDDD30DB0BDE8F08300002E4F0008D2
:1030B0002DE9FC410746099830B14FF6E0734FF611
:1030C000FF7541F6E30604E048F2104540F2FF7355
:1030D0002E1101F126001FFA80F8D41C0A3122B209
:1030E00009B2384600F088F83FB1012F0AD0022F0C
:1030F000A1B212D002230B4A08E00A4A0223A1B26D
:10310000121F03E0074A0223A1B2921ECDE9005626
:10311000404600F011FABDE8FC81024A0323921CEC
:10312000F4E70000FC4E00082DE9F74F82B00024C0
:103130000746632380221D212046009400F030FAC8
:103140004FF6E078CDE9008408232A4A04210020C4
:1031500000F0F2F91F2000900223702218210820AD
:1031600000F01EFA40F2FF7901235C221B2112209D
:10317000CDF8009000F014FA41F6E30B4FF0150A79
:10318000BC4201D1012600E00026C4EBC40101EBE2
:10319000041523350EB1584601E040F64100009079
:1031A00015236E222946092000F037FACDE900A642
:1031B0006E232A4609212046FFF77AFF641CE4B2F9
:1031C000042CDDD30221CDE90081DDE90313742253
:1031D0000620FFF734FECDF80090DDE90301084436
:1031E000001F01B202236C220A2000F016FA05B07B
:1031F000BDE8F08F264F00082DE9FC5F0D46010069
:1032000002F105000FFA80FB05F105000FFA80FAC4
:103210001E4614464FF6FF794FF0010034D0E21CF1
:103220000FFA82F8EA1C17B201294ED004F1090204
:103230000FFA82F902294FF00F0361D0CDE9006047
:103240000F2221462846FFF7FAFD032309224946AB
:103250003846009600F0E1F9241D0723022221B22E
:103260005046009600F0D9F905F108000823022223
:10327000414600B2009600F0D0F9062302225946DA
:103280000B35009628B237E0CDE900600E231A46D0
:1032900021462846FFF7D3FDA01C01B2A81D0A2332
:1032A000022200B2009600F0B8F9A41DAD1C022362
:1032B0000A2221B228B2009600F0AFF904231A4680
:1032C00059465046CDF8009016E0CDE900600F2336
:1032D0000D2221462846FFF7B2FD09230722414669
:1032E0003846009600F099F90223E41D1A4621B2EF
:1032F0000935CDF80090C5E700F08FF9BDE8FC9FD7
:10330000CDE900600E2221462846FFF798FD0323F1
:10331000082241463846009600F07FF92D1D28B25C
:103320000123062249460546009600F076F901235E
:1033300006220C3421B228460096DDE72DE9FC5F19
:103340009A468346514501DA0B4600E053468818F9
:103350000C9A0AEB0209484501DD00B201E00FFAC0
:1033600089F01B1F001D1EB207B21D2E00DA1D269C
:10337000802F00DD802700200090B81B03B2782248
:103380003146042000F049F900245C4501D10120B8
:1033900000E00020C4EBC401804601EB041505F1F8
:1033A000380000B22335B04219DBBD4217DCB8F15A
:1033B000000F02D041F6E30001E040F6410000902A
:1033C00015236E222946092000F027F91521CDE9A1
:1033D00000186E232A4609212046FFF769FE641C67
:1033E000E4B2042CD1D302214FF6E070CDE9000104
:1033F0007422514606200C9BFFF721FD40F2FF701E
:103400000090A9F1040001B202236C220A2000F00E
:1034100004F9BDE8FC9F2DE9FC4116460546032052
:10342000CDE9006098460C4605F10C0018231E22D9
:1034300009B200B2FFF703FD04F1100081B20027CA
:1034400005F1120080B20C231222009700F0A8F8B8
:10345000B8F1000F09D0E01D81B205F1260080B25D
:1034600003230A22009700F09BF804F1180081B2B0
:10347000262336222846009600F092F840F64100B6
:10348000009004F11D0081B2681D80B21C232C2223
:1034900000F086F804F1270081B205F1190080B22E
:1034A0000C230522009600F07BF8233417350923FE
:1034B000A1B2A8B21A46009600F072F8BDE8FC81ED
:1034C0002DE9FC4116460C4605460BB1022000E0F2
:1034D0000120CDE900602023182221B228B2FFF795
:1034E000AEFC40F641000090601D81B2281D80B204
:1034F0000823102200F054F804F1120081B26F1D6D
:10350000B8B202230E22009600F04AF804F1180027
:1035100081B2B8B202230E22009600F041F80120D9
:10352000CDE900600823083408351A4621B228B2D4
:10353000FFF785FCBDE8FC812DE9F84F1D46DDE96C
:103540000A9816468A46074600240BE0CDF800800C
:1035500007EB0410325D80B24B465146FFF7E0FCAA
:10356000641CE4B2AC42F1D3BDE8F88F10B50BB1E6
:103570009A4201D3084610BD0C1AC2EB43015143D5
:103580005B434C4394FBF3F1084400B210BD08B513
:103590008023002100901A46084600F001F808BD7B
:1035A000F0B5A1B01D46269E1446802833D280294E
:1035B00031D2002C2FD0002D2DD00219802A02D913
:1035C000C0F1800294B24A19802A02D9C1F1800266
:1035D00095B20022370A6B46F6B29F5403EB020CF9
:1035E000921C92B28CF80160802AF6D32B462246B8
:1035F00000F0B2F96C434FF6FF760AE0402C01D997
:10360000402500E0A5B206EA4501684600F0B4FD99
:10361000641B002CF2D121B0F0BD38B5002A049C07
:1036200029DD002B27DD002802DA104402B2002039
:10363000002905DA19440BB2002180281BDA03E0C7
:10364000802818DA802916DA002A14DD002B12DD12
:103650008518802D02DDC0F1800212B2CD18802DB8
:1036600002DDC1F180031BB29BB292B289B280B27B
:103670000094FFF795FF38BD10B5894C0022022158
:103680002046FDF7D7FA1420FDF7D2F901220221D6
:103690002046FDF7CFFA7820FDF7CAF9012000F0A7
:1036A0002BFD7820FDF7C4F9112000F025FD7820CE
:1036B000FDF7BEF9B12000F01FFD012000F03CFD38
:1036C0002C2000F039FD2D2000F036FDB22000F056
:1036D00013FD012000F030FD2C2000F02DFD2D20E9
:1036E00000F02AFDB32000F007FD012000F024FDCA
:1036F0002C2000F021FD2D2000F01EFD012000F007
:103700001BFD2C2000F018FD2D2000F015FDB4202D
:1037100000F0F2FC072000F00FFDC02000F0ECFCF0
:10372000A22000F009FD022000F006FD842000F038
:1037300003FDC12000F0E0FCC52000F0FDFCC2202C
:1037400000F0DAFC0A2000F0F7FC002000F0F4FCA6
:10375000C32000F0D1FC8A2000F0EEFC2A2000F00B
:10376000EBFCC42000F0C8FC8A2000F0E5FCEE2051
:1037700000F0E2FCC52000F0BFFC0E2000F0DCFCF5
:10378000362000F0B9FCC82000F0D6FCE02000F0A4
:10379000B3FC0F2000F0D0FC1A2000F0CDFC0F206D
:1037A00000F0CAFC182000F0C7FC2F2000F0C4FC79
:1037B000282000F0C1FC202000F0BEFC222000F0F8
:1037C000BBFC1F2000F0B8FC1B2000F0B5FC232040
:1037D00000F0B2FC372000F0AFFC002000F0ACFCA1
:1037E000072000F0A9FC022000F0A6FC102000F049
:1037F000A3FCE12000F080FC0F2000F09DFC1B20CA
:1038000000F09AFC0F2000F097FC172000F094FCC9
:10381000332000F091FC2C2000F08EFC292000F0D9
:103820008BFC2E2000F088FC302000F085FC30203E
:1038300000F082FC392000F07FFC3F2000F07CFC8F
:10384000002000F079FC072000F076FC032000F057
:1038500073FC102000F070FCF02000F04DFC012003
:1038600000F06AFCF62000F047FC002000F064FC49
:103870003A2000F041FC052000F05EFC132000F02F
:103880003BFC0A20FDF7D4F8292000F035FC782015
:10389000FDF7CEF8BDE810400020FFF778BE00002D
:1038A000000C01402DE9FC5F00244FF6E07527462F
:1038B0006E114FF0010840F641094FF0060A4FF42F
:1038C000FC6B0020FFF763FECDE900570423214A7B
:1038D0000C212020FFF730FE1E4A20210423121D58
:1038E0000846CDE90067FFF727FEE00701D02B4629
:1038F00000E0334604F001024E212A20FFF75DFA72
:10390000022C01D9012100E00021CDE9008128230A
:103910001C223A214E20FFF7E9F905235822712194
:103920001420CDF80090FFF73BFE5820641C604344
:10393000B0FBFAF2052371211420CDF800B0FFF797
:103940002FFE5020FDF774F8E4B2062CB9D3BDE881
:10395000FC9F0000014F0008F8B58718851CCE18A1
:10396000CC1C2A20B61C7F1C00F0C6FB280A8DF850
:1039700000008DF80150380A8DF802008DF80370B0
:103980000421684600F0F8FB2B2000F0B5FB200A6C
:103990008DF800008DF80140300A8DF802008DF896
:1039A00003600421684600F0E7FB2C2000F0A4FB34
:1039B000F8BD00002DE9FC471E2800D91E200A2171
:1039C000B0FBF1F2B0FBF1F801FB120654214843C1
:1039D0001E21B0FBF1F70020FFF7D9FD00244FF4C2
:1039E0007845CDE900540423324A06212020FFF710
:1039F000A3FD022364221E210E200095FFF7D0FDB7
:103A000000232A4622212520FFF705FD4FF62059E5
:103A10004B460A224E2128200094FFF70BFB4B4611
:103A20000B224E2140200094FFF704FB4FF6E07478
:103A30002346424665212B20FFF7F4F82346324601
:103A400065213D20FFF7EEF802230822682153206C
:103A50000094FFF7A5FD0223082270215320009453
:103A6000FFF79EFD02230822782153200094FFF7E0
:103A700097FD062302226A2151200094FFF790FD52
:103A80000623022272215B200094FFF789FD40F695
:103A900041000090042354227C211620FFF780FD72
:103AA00004233A467C2116200095FFF779FDBDE8F6
:103AB000FC870000114F00082DE9FF4F83B09946A5
:103AC0000546042802D94FF0040500E001D34FF069
:103AD00003004FF00C080290032902D0022902D003
:103AE00003E00E2000E00D2080460020FFF74FFD90
:103AF000002440F2FF7B5E465B46224606211020F2
:103B00000094FFF797FA33460122062128200094FB
:103B1000FFF790FA33461022062142200094FFF767
:103B20003DFA33461122062158200094FFF736FA59
:103B30001F2000900223602222211020FFF730FD79
:103B4000059810B14FF6E07200E05A460123272194
:103B50003220FFF79DF90024AC4202D24FF4FC67FB
:103B600007E00298844202D14FF6E07701E048F284
:103B700010470120CDE9007004EB440000EBC40ABB
:103B8000182101EB4A00064614230E224821FFF7B4
:103B900056F9B9F1000F10D0AC420ED219F804203A
:103BA000A2F13000052800D8C2B2192101EB4A0069
:103BB0004FF4FC634821FFF735F8304605230E2209
:103BC0005E210097FFF7ECFC641CE4B2042CC3D325
:103BD000059848B1002000904FF6E07342466421FA
:103BE0003420FFF727FA10E00120CDE900B05C4651
:103BF00012232A2265212B20FFF721F903231E22FD
:103C00006D2131200094FFF7CBFC48F2104000906A
:103C100002233C2279212220FFF7C2FC07B0BDE835
:103C2000F08F10B504460020FFF7B1FC2046C4EB2E
:103C3000C00101EB00111922BDE810402131FFF74E
:103C400073BA00002DE9F74F054682B00C460020FC
:103C5000FFF79DFC00264FF6E077CDE900760423C0
:103C6000384A19462020FFF767FC40F2FF78354AB2
:103C7000CDE900860423121D16212020FFF75CFCED
:103C80001F200090022364222A210E20FFF788FCC7
:103C9000012350222D211820CDF80080FFF780FC51
:103CA00000233A4630212520FFF7B5FB48F21048A3
:103CB0004FF001094FF0180A4FF4FC6BA64201D2F5
:103CC000584600E04046CDE9000906EB460000EB0F
:103CD000C6070AEB470014230E225B21FFF7AFF85B
:103CE0006DB1A6420BD2A85D3038052807D8C2B204
:103CF000192000EB47005B465B21FEF793FF761C23
:103D0000F6B2042EDAD340F64100009005235C227F
:103D100077211220FFF744FC049838B14FF4784023
:103D200003234822782100901C2005E00123502223
:103D300079211820CDF80080FFF732FC05B0BDE8EE
:103D4000F08F0000094F0008002211461046FFF7CF
:103D500079BF00001CB50020FFF719FC4FF4FC648C
:103D60000123224620213220FFF792F80020CDE9DE
:103D700000400423074A54212020FFF7DDFB40F2D6
:103D8000FF70009003233C226E212220FFF708FCE5
:103D90001CBD00001D4F0008F8B505460020FFF7C8
:103DA000F6FB00244FF6E07633462246062110202B
:103DB0000094FFF73FF933460122062128200094A2
:103DC000FFF738F933460222062140200094FFF71E
:103DD00031F933460322062158200094FFF72AF9CF
:103DE00033460422222110200094FFF723F93346A2
:103DF0000522222128200094FFF71CF933460622D1
:103E0000222140200094FFF715F933460722222192
:103E100058200094FFF70EF91F2000900223702213
:103E200040210820FFF7BCFB7611334608224421CD
:103E30001C200094FFF7FEF8334609224421342069
:103E40000094FFF7F7F82846BDE8F84000F0FEB808
:103E50007CB50020FFF79BFB002540F2FF70CDE909
:103E600000050523134A08211820FFF765FB1F20D2
:103E700000900223602222211020FFF791FB4FF6D1
:103E8000E074012322462F213420FFF719FB094A51
:103E90000223D21C62213020CDE90045FFF74CFB04
:103EA00048F21040009002233C2277212220FFF7A5
:103EB00077FB7CBD214F00081CB50020FFF767FB96
:103EC0004FF4FC640123224623213420FFF7F8FA43
:103ED0000020CDE900400423074A58212020FFF7A5
:103EE0002BFB40F2FF70009003233C227021222024
:103EF000FFF756FB1CBD0000194F0008F8B505463A
:103F00000020FFF744FB00244FF6E07633460A22F8
:103F1000062102200094FFF741F8334609220621CA
:103F200016200094FFF73AF83346042206212A208F
:103F30000094FFF77FF83346052206213F200094C6
:103F4000FFF778F806223346114654200094FFF715
:103F500071F833460722062168200094FFF76AF8BB
:103F60001F2000900223702224210820FFF718FB55
:103F70007611334608222A2128200094FFF75AF8A8
:103F8000334609222A2140200094FFF753F828469F
:103F9000BDE8F84000F085B82DE9F843064603284F
:103FA00002D34FF4784501E04FF620550020FFF78B
:103FB000EEFA00232A4618212520FFF72CFA0423C5
:103FC00054225C2116200095FFF7EAFA40F64100E2
:103FD00000900223442268211E20FFF7E1FA00240A
:103FE00048F210482A27B44201D2284600E0404651
:103FF0000090082307EB04101A467021FFF7D0FA4F
:10400000641CE4B2032CEED3BDE8F8831CB5002099
:10401000FFF7BDFA00204FF4FC64CDE90040042313
:10402000094A08212020FFF787FA012322462D2183
:104030002520FFF7F0F90423502270211820009466
:10404000FFF7AEFA1CBD0000154F0008F8B50A25B1
:104050000B244FF4FC6601281CD002281CD0032836
:104060001DD04FF47846002720233C2260212420D5
:104070000097FFF795FA33462A46622128200097D9
:10408000FEF7D8FF33462246622140200097FEF714
:10409000D1FFF8BD0C2500E00D250F24E3E70E2528
:1040A000FBE72DE9FC41044601281FD04FF4784579
:1040B0000C2700263A238022462130460096FFF73F
:1040C0006FFA012C16D000200121CDE900101C232D
:1040D000242246212E20FEF709FE2B463A466A216D
:1040E00038200096FEF71CFFBDE8FC814FF4FC650C
:1040F0000B27DEE70120E7E731B50D4D4FF4806473
:10410000002221462846FCF795FD00220121284681
:10411000FCF790FD4FF0FF33012269460548FDF79B
:1041200099FC012221462846FCF784FD38BD000099
:10413000000C0140F800002031B50D4D4FF48064B3
:10414000002221462846FCF775FD0122114628462B
:10415000FCF770FD4FF0FF33012269460548FDF77B
:1041600079FC012221462846FCF764FD38BD000099
:10417000000C0140F80000202DE9F0410E4F0C46E4
:1041800005464FF48066002231463846FCF752FD62
:10419000012211463846FCF74DFD4FF0FF33224611
:1041A00029460648FDF756FC31463846BDE8F04141
:1041B0000122FCF73FBD0000000C0140F800002088
:1041C0007047000010B5024672B606480078054BED
:1041D00000219B1D5C5C5454491CC9B20429F9D3CD
:1041E00062B610BD80000020F0B51A4900200A1FF9
:1041F000135C0B54401CC0B20428F9D315490E3986
:104200004878002501238C1D58B10020165C2654E7
:10421000401CC0B20428F9D30B704D70CD70032040
:1042200015E0087860B10020165C275CBE4207D11B
:10423000401CC0B20428F7D30B71CD704B71F0BD98
:10424000C878032802D2C878401CC8700220487180
:10425000F0BD00008E0000200A4910B500208870D3
:10426000C8700871087048704871064A01460A32E1
:10427000131D141F505458546054491CC9B20429CA
:10428000F8D310BD80000020034800218170C17068
:1042900001714170417170478000002070B5044683
:1042A00072B6084B587900225A7103F10E05AE5CC4
:1042B000A654521CD2B2042AF9D309B1DA780A7092
:1042C00062B670BD80000020194930B48C7800239C
:1042D00001F10A020B2C29D2DFE804F0060B1114BD
:1042E0001A171A1D1F212300042806D18878401CA4
:1042F00002E00C28FAD00020887030BC70470228F9
:10430000F9D1F3E73028F6D1F0E70428F3D1EDE74F
:104310000028F0D1EAE71070E8E75070E6E7907007
:10432000E4E7D0708B7030BCFFF75EBF8B70E4E7C2
:104330008000002072B60021074A435C5354491C98
:10434000C9B20429F9D304480121801F017000215A
:10435000C17062B67047000086000020034801214A
:104360004170002141718170704700008000002081
:10437000F8B515460E460B4600920446012202216E
:1043800000F010F840B93346002280212046009505
:1043900000F008F8002804D0606D40F0200060654F
:1043A0000320F8BD2DE9F8431E4691468846044691
:1043B000089DFCF745FC401B351AFCF741FC0746FD
:1043C00025480068C0F3CB30684338E0701C37D014
:1043D000FCF736FCC01BA84203D215B1009860B3AD
:1043E0002CE02068416821F0E00141606068B0F590
:1043F000827F0BD1A068B0F5004F02D0B0F5806F7E
:1044000004D12068016821F040010160A06AB0F584
:10441000005F09D12068016821F400510160206823
:10442000016841F400510160012084F8510000202E
:1044300084F850000320BDE8F8830025401E00905A
:104440002068816838EA010004D000214945BDD1C7
:104450000020F0E70121F9E7A000002070470000EC
:1044600010B5002803D000BF40F6C41001E04FF49F
:10447000FA7008490968486302D04FF0010001E072
:104480004FF00000044CE072FCF7DAFB20630120DF
:10449000207310BD9801002000000020FCF74EBFE3
:1044A00030B58FB028216846FBF78EFE14210AA88C
:1044B000FBF78AFE01210804CDE9001000240294D4
:1044C00002250491CDE907504FF4E01009906846A9
:1044D000FDF7A8F808B172B6FEE70F20CDE90A058E
:1044E0004FF48060CDE90C4002210AA80E94FCF73D
:1044F000BDFF002801D072B6FEE70FB030BD704797
:10450000F0B50268194B1A4C1A4D4FF0804798428B
:1045100005D0B84203D0A04201D0A84203D122F076
:1045200070064A683243984205D0B84203D0A04290
:1045300001D0A84203D122F44074CA6822434C69D6
:1045400022F08002224302608A68C2620A688262A4
:10455000984201D109690163012141610169C907DB
:1045600003D0016921F001010161F0BD002C01407F
:10457000000400400008004010B501F01F030121B5
:10458000046A99408C430462016A9A4011430162B3
:1045900010BD10B5846842EA032224F47F440A4324
:1045A0002243826010BD826822F070020A4342F00A
:1045B000070181607047000030B5036A026A22F08B
:1045C000010202624268846924F073050C682C437E
:1045D00023F002058B682B430A4DA8420BD123F030
:1045E0000805CB6822F440722B434D6923F0040385
:1045F00015438A692A4342608461496841630362C2
:1046000030BD0000002C014030B5026A036A23F07F
:1046100010030362436884690D6824F4E64444EAA5
:1046200005248D6822F0200242EA05120B4DA842B3
:104630000ED1CD6822F0800242EA05124D6923F4C2
:10464000406343EA85038D6922F0400243EA850313
:104650004360846149688163026230BD002C01407F
:1046600030B5036A026A22F4807202624268C46949
:1046700023F4007324F073050C682C438D6843EA1F
:1046800005230C4DA8420ED1CD6823F4006343EA04
:1046900005234D6922F4405242EA05128D6923F444
:1046A000806342EA05124260C4614968C1630362E3
:1046B00030BD0000002C014030B5046A026A22F4CB
:1046C000805202624268C3690D6823F4E64343EAFC
:1046D00005238D6824F4005444EA0534064DA842AD
:1046E00004D14D6922F4804242EA85124260C361DE
:1046F00049680164046230BD002C014010B5036AB2
:10470000046A24F001040462846924F0F00444EA99
:10471000021423F00A020A438461026210BD10B53C
:10472000036A046A24F010040462846923F0A0037D
:1047300024F4704444EA023243EA011182610162C6
:1047400010BD00002DE9F041664C617B91B1A0F1F4
:104750004101192901D82030C0B2624DA0F13002C8
:10476000012100265435052A4ED8A6762E70A2794E
:1047700022B115E0BDE8F041FBF7F2BF31280FD3BD
:1047800034280DD83138C0B2042807D2E2799042DB
:1047900004D0E2792272E0716172A672BDE8F08104
:1047A000A179052903D0A179012904D01BE0BDE836
:1047B000F041FBF751BE332815D830280BD03128F3
:1047C0000BD032280CD03328E8D140F2E730BDE8D6
:1047D000F041FEF7A1B90020F9E74FF49670F6E733
:1047E0004FF41670F3E7A179022901D1352809D0D9
:1047F000A1790229D2D13028D0D10020BDE8F041E2
:10480000FFF72EBE0120F9E70D2868D00A2866D0F0
:10481000202864D0A0F161011A2960D2A17E072965
:1048200000D3A676A17E6854491CC8B2A0762E5447
:104830002C482DA15430FCF777F878BB29482BA1E0
:104840005430FCF771F848BB26482AA15430FCF7D5
:104850006BF818BB234829A15430FCF765F8E8B978
:10486000204828A15430FCF75FF8B8B91D4827A1AB
:104870005430FCF759F888B91A4826A15430FCF78F
:1048800053F858B9174825A15430FCF74DF828B90A
:10489000144824A15430FCF747F820B11148543093
:1048A000FBF7BCFE1BE0DFF83CC0A37E0CF1540C10
:1048B00000210CF1080200200AE000BF52F821702C
:1048C0003F5C47B11CF800E0774504D1401CC0B202
:1048D0009842F3D362E7491CC9B20929EBD3A67603
:1048E0002E705BE7000000206F6B00006578697434
:1048F000000000006F70656E00000000636C6F7355
:10490000650000006C696B65000000006469736CF1
:10491000696B650070616C6D0000000066697374FE
:1049200000000000696E76616C6964000122024932
:104930000248FDF747BD00001F000020E0010020F5
:10494000012202490248FDF73DBD00002000002081
:104950002802002010B5406A0021C185C184FDF7FE
:104960004DFB10BD01680C3151E8002F22F490720C
:1049700041E80023002BF5D10168143151E8002FE4
:1049800022F0010241E80023002BF5D1016B01293F
:1049900009D101680C3151E8002F22F0100241E8E2
:1049A0000023002BF5D1202180F842100021016363
:1049B000704708B590F84210222901D0022008BDA6
:1049C00082684FF480539A4201D1016921B1816A12
:1049D0009A421BD04AB10AE00268816A5268C2F367
:1049E00008020A80816A891C08E0026972B10268C3
:1049F000526802F07F020A70816A491C8162C18D8F
:104A0000491E0904090CC18503D01BE002685268E5
:104A1000F1E70168CA6822F02002CA600168CA682A
:104A200022F48072CA6001684A6922F001024A6178
:104A3000202180F8421000214163026B012A03D03B
:104A4000FDF7CEFC002008BD016301680C3151E880
:104A5000002F22F0100241E80023002BF5D101685D
:104A60000A68D20602D50A6849680091818DFDF76F
:104A7000C3FAE7E770B5044600680169E26821F40B
:104A80004051114301612169A068084361690843ED
:104A90002168CA6841F20C639A430243CA602068E5
:104AA0004169A26921F44071114341611E492068A6
:104AB000884202D1FCF780FD01E0FCF76DFD00EBC0
:104AC000C00101EB0012606864218000B2FBF0F3CA
:104AD000B3FBF1F36FF018067343B2FBF0F5B2FBD2
:104AE000F0F605EB8305322303EB0515B5FBF1F575
:104AF000B6FBF1F605F0F00505EB0615B2FBF0F696
:104B0000B2FBF0F0B0FBF1F06FF01802504306EB8F
:104B1000800003EB0010B0FBF1F0216800F00F0003
:104B20002844886070BD00000038014081628285A1
:104B3000C28500214164222180F84210016921B11F
:104B40000168CA6842F48072CA6001684A6942F02A
:104B500001024A610068C16841F02001C160002083
:104B6000704700000148FDF759BA0000E00100203D
:104B70000148FDF753BA000028020020FEE70907AC
:104B8000090E002804DB00F1E02080F800147047D3
:104B900000F00F0000F1E02080F8141D70470000C5
:104BA0001FB5FCF7D3FBFFF77BFCFDF75BFEFDF7C2
:104BB000DDFEFDF777FFFDF7B5FEFDF723FFFDF7FF
:104BC0008DFFFDF78FFEFFF747FB0D2269460020A2
:104BD000FBF75EFB38BB9DF80000482823D19DF809
:104BE000010047281FD19DF8020001281BD168460B
:104BF000FBF78EFE9DF80C10884214D19DF803003F
:104C00006C46C00702D0201DFFF794FB9DF80300FF
:104C1000800708D5B44A00216018007A5054491C16
:104C2000C9B20429F8D30021B048FDF797F9002153
:104C3000AF48FDF793F9AF4C012211032046FBF773
:104C4000F9FF012251032046FBF7F4FF00224FF445
:104C500080412046FBF7EEFFFEF70EFDFEF722FE39
:104C6000FFF772F8A04D0320443DA87100246C7337
:104C70002046FDF751FF0020FFF7F2FB6C702C730C
:104C80006C72AC72FFF752FEFFF75AFE4FEA050B4B
:104C9000FBF764FBFBF74AFC9BF810005D4680B114
:104CA000FBF7CEFF696B401A0BD42C74EC73A87C15
:104CB00038B9287D28B98C48002211460830FEF703
:104CC000C1FFFBF701FCFBF78FFB72B6E97DA87D06
:104CD000EC7562B611B150B1FEF76CFE287948B19F
:104CE000FBF7AEFFE96A401A04D4012103E0FFF7A5
:104CF0002BF8F3E70021E87810B1287900B141B131
:104D00004FF00008687838B1E87800B121B101208F
:104D100003E04FF00108F5E700208146A87830B1A4
:104D2000FBF78EFFA96A401A01D4012700E0002793
:104D3000287B30B1FBF784FF296B401A01D4012690
:104D400000E0002647B172B6688CAC70AC6262B607
:104D5000664909684863A884B8F1000F98D1687A59
:104D600030B9A87A20B9B9F1000F01D1002E8FD047
:104D700072B6AB462846AD79C1790091017A0191AE
:104D800001780391C17A029190F8098090F80AA005
:104D90005FEA09074472847201D04470047106B15D
:104DA000047362B6B8F1000F15D09BF80310584693
:104DB00069B9818C4184847084620121C17004715D
:104DC0004A4909684C6384846420FBF731FEDDE9BD
:104DD0000010FDF7D8FEBAF1000F22D09BF80300B7
:104DE000A0B9BBF82410ABF822108BF80240CBF826
:104DF000284001218BF803108BF804403B490968D7
:104E00004C63ABF824406420FBF712FE6DB1012D1A
:104E10000FD0022D11D0042D13D0052D14D0FEF784
:104E200093FFBFB3012D1AD01CE00098FEF7F9FEE6
:104E3000F7E70398FEF7B0FFF3E70298FFF75EF895
:104E4000EFE7FFF705F8ECE7274B9BF81D200C3345
:104E50009BF81E109BF81C00FEF72EFEE1E703985E
:104E6000FFF7F4F89BF8050050B1ABF822408BF83F
:104E70000240CBF82840ABF824408BF8054007E00F
:104E8000FBF7DEFE6430CBF8280001208BF802002F
:104E90008BF8034058EA0A001CD09BF80300D84660
:104EA000C0B1BFB998F8050050B1A8F8224088F801
:104EB0000240C8F82840A8F8244088F8054007E0D8
:104EC000FBF7BEFE6430C8F82800012088F8020015
:104ED00088F80340002E3FF4DBAE022D7FF4D8AEFD
:104EE0000298FFF7DEF8D3E64400002050010020CE
:104EF00098010020000C014008090A0900010D0E6C
:104F00000F00010203040506070001020304050661
:104F100007000102030001020310111213141513FC
:104F2000160D0E0F10110001020304050607000004
:104F3000000000E01FFFF01FFF80001800001800B5
:104F40000018000FFFF01FFFF0001800001800000D
:104F500018007FFFFC7FFFFC0018000018000018FD
:104F60000000180000380000F80000F00000000009
:104F70000000000000000000000606000606000613
:104F800006007FBFE03F9F60060660079E607F1EB1
:104F900060760F60061A6C06707C1E603C18301834
:104FA0001FFFE03FFFE000606000E06001C06007BD
:104FB00080E03F07C03807800000000000000000CC
:104FC000000030000070000070000070003FFFE043
:104FD0003FFFE03870603870603870603FFFE03F3E
:104FE000FFE03870603870603870603FFFE03FFF6E
:104FF000E038700000700C00700C003FFC003FF8BF
:105000000000000000000000000400000E00000E80
:105010001FC00E1FC00E18C07FD8C07FD8C00E188A
:10502000C00E18C01F18C01F98C01FD8C03ED8C0DF
:105030003E18C06E18C06E30C00E30C00E70CC0E60
:1050400060EC0EE0FC0E4078000000000000000064
:10505000000000007F9FFC6198083198003198188B
:10506000319B38319B303199B03199E03198E03F34
:10507000D8E03FD8F000D9B800DB987EDB187EDAA4
:105080000000D80000D80007DFFC078FFC020000FA
:10509000000000000000000000000100000180008E
:1050A00001803FE1803FE180001FF8001FFC00010C
:1050B0008C7FE18C7FE18C0E019C0C031C0CC318CF
:1050C00018C31818631833F7187FF6183C3E1800F9
:1050D0001C180038F80030F000000000000000004C
:1050E00000000060003FF01FFFC01E7000007080D5
:1050F00000C1C00387800FFE0007FC000071C001E3
:10510000C0E00F8FF01FFFF80C18180018000718E8
:10511000C00E18F01C187838181830F80800700005
:105120000000000000000000000006000E07000C58
:1051300003001C7FF8187FFC398600338E007F0C3B
:10514000007E18600E38700C7FF8187FF83F8DC015
:105150003F8DC0380DC0000DC0019DC01F99CC7E91
:1051600039CC3070FC00E0F80000000000000000C6
:1051700000030000030700030760030370630338A4
:105180003303103B0300137FFC037FFC030700077E
:1051900007000F07801F07803B0F80730DC0230C93
:1051A000C00318E003387003703803F01C03600874
:1051B000000000000000000000003000007000004F
:1051C00070003FFFF87FFFF800E60000C600018393
:1051D0000003C3800771C01E30F87C10383000080F
:1051E000001800199870199C303988383181DC31E9
:1051F00081C861FF8000FF00000000000000000087
:10520000000606000E07000DFFFC0CFFFC1C000052
:105210001C7FF03C7FF03C60307C7FF06C7FE00DC9
:10522000FFFC0DFFFC0D800C0D70640C7FF00C0377
:10523000000C03000C03000C03000C1F000C0E00FC
:10524000000000000000000000000000000000005E
:1052500018000018000018000018000018000618B8
:1052600000061FF0061FF0061800061800061800BA
:105270000618000618000618000618000618000692
:1052800018007FFFFC7FFFFC000000000000000012
:10529000000000000000000000000000000000000E
:1052A0000000007FFFFC7FFFFC7FFFFC0000000090
:1052B00000000000000000000000000000000000EE
:1052C00000000000000000000000000000000000DE
:1052D00000000000000000000000000000000000CE
:1052E00000000000001FFFE01FFFE00000000000C2
:1052F00000000000000000000000000000000000AE
:105300000000000000000000000000087FFFFC7F9C
:10531000FFFC000000000000000000000000000092
:10532000000000000000001FFFF01FFFF008000059
:1053300000000000000000000000000007FFC00F98
:10534000FFC007FFC00000000000000000000000D8
:10535000000000000000007FFFFC7FFFFC00000059
:105360000000000000000000000403000C03000C1B
:1053700063180C73380C33307F3B707F03200C03B1
:10538000001C7FF81F7FF83F80183D80187DBFF814
:105390006C3FF86C00180C00180C00180C7FF80C0F
:1053A0007FF80C00180C001800000000000000003E
:1053B00003FC1F80008000803FFC008000807FFE97
:1053C0000080008000800080038000000000084012
:1053D00008407DF808481DC868E8098A3B0E21048A
:1053E0003FF8030802080C087870000000000180F4
:1053F00001807FFE60066FF603000708399863F0AE
:105400000CD07158064C18466380010000003FFC28
:10541000300C3FFC30C030C03FFE30C030C027FCF5
:10542000240C240C67FC440C000000000000183021
:105430001F3E3448654C01807FFE40021FF018106B
:105440001FF018001FF818081FF81800000001FED0
:105450007D26112611FE11267D2611FE102010201A
:1054600013FE1C20602003FE000000000000001C52
:105470003FE0018002100C601FC003100C0C3FFEC7
:1054800000800890108C208643800000000010608F
:10549000102033FE24404C407888118C11FE24509B
:1054A00078D000D004907992431E020000000100E1
:1054B000010001003FF8210821083FF821082108D8
:1054C0003FF83FF82100010201FE00000000180033
:1054D00018F818987E98189818983C983C983E9818
:1054E0005898599819181B1A1A0E00000000183005
:1054F00018103E0022FE2A822A8222607E64227CCC
:105500002A702A6062604262463E400000003FFC12
:1055100006200620062006207FFE7FFE06200420AF
:1055200004200C201820702000000000000004203F
:10553000042006603FFC3FFC0180018001807FFE6B
:105540000180034006700C1C700E0000000020203B
:10555000302013FE002003FE710411B4122013A0AA
:1055600010201BFE186010D8038602000000010006
:10557000010001FC0104010001007FFE0100014067
:1055800001700118010801000100010000003EFC4B
:1055900022C422C43EFC01907FFE03800660781E78
:1055A0003E7C224422443E7C2244000000003FF81E
:1055B00000081FF8001800187FFE0188199C09F0E8
:1055C00007E019B0618E03840200000000000400AF
:1055D000060003000180018001C003400260062034
:1055E0000C300818181C700E60000000000003004A
:1055F00001807FFE600660060FF000007FFE06401F
:10560000044004400C401846707C00000000005824
:10561000004C00403FFE304030403F4C2248227852
:105620002230222026726EDA430E0000000018405D
:1056300010C010FC35483730547857CE143014C899
:105640001418146011CE103813E00100000000405F
:1056500000407C4004C004FE05883D8820C82050DE
:10566000207020302C7038CC27060002000000602B
:1056700000607E60186019FE1866186618441844A9
:1056800018443EC460840104071C020000003F0669
:105690005B4F666D7D077F6F0102020304050607FD
:1056A00008090A0B0C0D0E0F10100000000000007E
:1056B00000000102030406070809000000000102BF
:1056C00003040000696E76616C6964006469736C40
:1056D000696B65006C696B6500000000636C6F733B
:1056E000650000006F6B000070616C6D00000000D1
:1056F0006F70656E0000000065786974000000003E
:10570000666973740000000028570008000000203C
:10571000A400000028010008CC570008A4000020C5
:105720002C080000440100080000000000000000F8
:105730000000000000000000000000000000000069
:105740000000000000000300000000000000000056
:105750000000000000000000000000000000000049
:10576000000000000000000000000000313233346F
:105770000000000000000000000000000000000029
:1057800000000000E4560008F8560008F056000833
:10579000DC560008D4560008CC560008E85600082D
:1057A00000570008C4560008000000000000000078
:1057B00000000000000000000000000001000000E8
:0C57C000100000000000000000127A0041
:04000005080000ED02
:00000001FF
